{
  "address": "0xe2f340bFFB804dd87D2A2419447647eF53FB84cb",
  "abi": [
    {
      "inputs": [
        {
          "internalType": "address",
          "name": "_governance",
          "type": "address"
        },
        {
          "internalType": "address",
          "name": "_strategist",
          "type": "address"
        },
        {
          "internalType": "address",
          "name": "_controller",
          "type": "address"
        },
        {
          "internalType": "address",
          "name": "_timelock",
          "type": "address"
        },
        {
          "internalType": "address",
          "name": "_redeem",
          "type": "address"
        },
        {
          "internalType": "address",
          "name": "_burn",
          "type": "address"
        },
        {
          "internalType": "address",
          "name": "_bond",
          "type": "address"
        }
      ],
      "stateMutability": "nonpayable",
      "type": "constructor"
    },
    {
      "inputs": [],
      "name": "bac",
      "outputs": [
        {
          "internalType": "address",
          "name": "",
          "type": "address"
        }
      ],
      "stateMutability": "view",
      "type": "function"
    },
    {
      "inputs": [],
      "name": "balanceOf",
      "outputs": [
        {
          "internalType": "uint256",
          "name": "",
          "type": "uint256"
        }
      ],
      "stateMutability": "view",
      "type": "function"
    },
    {
      "inputs": [],
      "name": "balanceOfPool",
      "outputs": [
        {
          "internalType": "uint256",
          "name": "",
          "type": "uint256"
        }
      ],
      "stateMutability": "view",
      "type": "function"
    },
    {
      "inputs": [],
      "name": "balanceOfWant",
      "outputs": [
        {
          "internalType": "uint256",
          "name": "",
          "type": "uint256"
        }
      ],
      "stateMutability": "view",
      "type": "function"
    },
    {
      "inputs": [],
      "name": "bas",
      "outputs": [
        {
          "internalType": "address",
          "name": "",
          "type": "address"
        }
      ],
      "stateMutability": "view",
      "type": "function"
    },
    {
      "inputs": [],
      "name": "bond",
      "outputs": [
        {
          "internalType": "address",
          "name": "",
          "type": "address"
        }
      ],
      "stateMutability": "view",
      "type": "function"
    },
    {
      "inputs": [],
      "name": "burn",
      "outputs": [
        {
          "internalType": "address",
          "name": "",
          "type": "address"
        }
      ],
      "stateMutability": "view",
      "type": "function"
    },
    {
      "inputs": [],
      "name": "controller",
      "outputs": [
        {
          "internalType": "address",
          "name": "",
          "type": "address"
        }
      ],
      "stateMutability": "view",
      "type": "function"
    },
    {
      "inputs": [],
      "name": "dai",
      "outputs": [
        {
          "internalType": "address",
          "name": "",
          "type": "address"
        }
      ],
      "stateMutability": "view",
      "type": "function"
    },
    {
      "inputs": [],
      "name": "deposit",
      "outputs": [],
      "stateMutability": "nonpayable",
      "type": "function"
    },
    {
      "inputs": [
        {
          "internalType": "address",
          "name": "_target",
          "type": "address"
        },
        {
          "internalType": "bytes",
          "name": "_data",
          "type": "bytes"
        }
      ],
      "name": "execute",
      "outputs": [
        {
          "internalType": "bytes",
          "name": "response",
          "type": "bytes"
        }
      ],
      "stateMutability": "payable",
      "type": "function"
    },
    {
      "inputs": [],
      "name": "getHarvestable",
      "outputs": [
        {
          "internalType": "uint256",
          "name": "",
          "type": "uint256"
        }
      ],
      "stateMutability": "view",
      "type": "function"
    },
    {
      "inputs": [],
      "name": "getName",
      "outputs": [
        {
          "internalType": "string",
          "name": "",
          "type": "string"
        }
      ],
      "stateMutability": "pure",
      "type": "function"
    },
    {
      "inputs": [],
      "name": "governance",
      "outputs": [
        {
          "internalType": "address",
          "name": "",
          "type": "address"
        }
      ],
      "stateMutability": "view",
      "type": "function"
    },
    {
      "inputs": [],
      "name": "harvest",
      "outputs": [],
      "stateMutability": "nonpayable",
      "type": "function"
    },
    {
      "inputs": [
        {
          "internalType": "address",
          "name": "",
          "type": "address"
        }
      ],
      "name": "harvesters",
      "outputs": [
        {
          "internalType": "bool",
          "name": "",
          "type": "bool"
        }
      ],
      "stateMutability": "view",
      "type": "function"
    },
    {
      "inputs": [],
      "name": "keepBAS",
      "outputs": [
        {
          "internalType": "uint256",
          "name": "",
          "type": "uint256"
        }
      ],
      "stateMutability": "view",
      "type": "function"
    },
    {
      "inputs": [],
      "name": "keepBASMax",
      "outputs": [
        {
          "internalType": "uint256",
          "name": "",
          "type": "uint256"
        }
      ],
      "stateMutability": "view",
      "type": "function"
    },
    {
      "inputs": [],
      "name": "pair",
      "outputs": [
        {
          "internalType": "address",
          "name": "",
          "type": "address"
        }
      ],
      "stateMutability": "view",
      "type": "function"
    },
    {
      "inputs": [],
      "name": "performanceDevFee",
      "outputs": [
        {
          "internalType": "uint256",
          "name": "",
          "type": "uint256"
        }
      ],
      "stateMutability": "view",
      "type": "function"
    },
    {
      "inputs": [],
      "name": "performanceDevMax",
      "outputs": [
        {
          "internalType": "uint256",
          "name": "",
          "type": "uint256"
        }
      ],
      "stateMutability": "view",
      "type": "function"
    },
    {
      "inputs": [],
      "name": "performanceTreasuryFee",
      "outputs": [
        {
          "internalType": "uint256",
          "name": "",
          "type": "uint256"
        }
      ],
      "stateMutability": "view",
      "type": "function"
    },
    {
      "inputs": [],
      "name": "performanceTreasuryMax",
      "outputs": [
        {
          "internalType": "uint256",
          "name": "",
          "type": "uint256"
        }
      ],
      "stateMutability": "view",
      "type": "function"
    },
    {
      "inputs": [],
      "name": "redeem",
      "outputs": [
        {
          "internalType": "address",
          "name": "",
          "type": "address"
        }
      ],
      "stateMutability": "view",
      "type": "function"
    },
    {
      "inputs": [],
      "name": "redeemFee",
      "outputs": [
        {
          "internalType": "uint256",
          "name": "",
          "type": "uint256"
        }
      ],
      "stateMutability": "view",
      "type": "function"
    },
    {
      "inputs": [
        {
          "internalType": "address",
          "name": "_harvester",
          "type": "address"
        }
      ],
      "name": "revokeHarvester",
      "outputs": [],
      "stateMutability": "nonpayable",
      "type": "function"
    },
    {
      "inputs": [],
      "name": "rewards",
      "outputs": [
        {
          "internalType": "address",
          "name": "",
          "type": "address"
        }
      ],
      "stateMutability": "view",
      "type": "function"
    },
    {
      "inputs": [
        {
          "internalType": "address",
          "name": "_burn",
          "type": "address"
        }
      ],
      "name": "setBurn",
      "outputs": [],
      "stateMutability": "nonpayable",
      "type": "function"
    },
    {
      "inputs": [
        {
          "internalType": "address",
          "name": "_controller",
          "type": "address"
        }
      ],
      "name": "setController",
      "outputs": [],
      "stateMutability": "nonpayable",
      "type": "function"
    },
    {
      "inputs": [
        {
          "internalType": "address",
          "name": "_governance",
          "type": "address"
        }
      ],
      "name": "setGovernance",
      "outputs": [],
      "stateMutability": "nonpayable",
      "type": "function"
    },
    {
      "inputs": [
        {
          "internalType": "uint256",
          "name": "_keepBAS",
          "type": "uint256"
        }
      ],
      "name": "setKeepBAS",
      "outputs": [],
      "stateMutability": "nonpayable",
      "type": "function"
    },
    {
      "inputs": [
        {
          "internalType": "uint256",
          "name": "_performanceDevFee",
          "type": "uint256"
        }
      ],
      "name": "setPerformanceDevFee",
      "outputs": [],
      "stateMutability": "nonpayable",
      "type": "function"
    },
    {
      "inputs": [
        {
          "internalType": "uint256",
          "name": "_performanceTreasuryFee",
          "type": "uint256"
        }
      ],
      "name": "setPerformanceTreasuryFee",
      "outputs": [],
      "stateMutability": "nonpayable",
      "type": "function"
    },
    {
      "inputs": [
        {
          "internalType": "address",
          "name": "_strategist",
          "type": "address"
        }
      ],
      "name": "setStrategist",
      "outputs": [],
      "stateMutability": "nonpayable",
      "type": "function"
    },
    {
      "inputs": [
        {
          "internalType": "address",
          "name": "_timelock",
          "type": "address"
        }
      ],
      "name": "setTimelock",
      "outputs": [],
      "stateMutability": "nonpayable",
      "type": "function"
    },
    {
      "inputs": [
        {
          "internalType": "uint256",
          "name": "_withdrawalDevFundFee",
          "type": "uint256"
        }
      ],
      "name": "setWithdrawalDevFundFee",
      "outputs": [],
      "stateMutability": "nonpayable",
      "type": "function"
    },
    {
      "inputs": [
        {
          "internalType": "uint256",
          "name": "_withdrawalTreasuryFee",
          "type": "uint256"
        }
      ],
      "name": "setWithdrawalTreasuryFee",
      "outputs": [],
      "stateMutability": "nonpayable",
      "type": "function"
    },
    {
      "inputs": [],
      "name": "staking_pool",
      "outputs": [
        {
          "internalType": "address",
          "name": "",
          "type": "address"
        }
      ],
      "stateMutability": "view",
      "type": "function"
    },
    {
      "inputs": [],
      "name": "strategist",
      "outputs": [
        {
          "internalType": "address",
          "name": "",
          "type": "address"
        }
      ],
      "stateMutability": "view",
      "type": "function"
    },
    {
      "inputs": [],
      "name": "sushiRouter",
      "outputs": [
        {
          "internalType": "address",
          "name": "",
          "type": "address"
        }
      ],
      "stateMutability": "view",
      "type": "function"
    },
    {
      "inputs": [],
      "name": "timelock",
      "outputs": [
        {
          "internalType": "address",
          "name": "",
          "type": "address"
        }
      ],
      "stateMutability": "view",
      "type": "function"
    },
    {
      "inputs": [],
      "name": "token1",
      "outputs": [
        {
          "internalType": "address",
          "name": "",
          "type": "address"
        }
      ],
      "stateMutability": "view",
      "type": "function"
    },
    {
      "inputs": [],
      "name": "univ2Router2",
      "outputs": [
        {
          "internalType": "address",
          "name": "",
          "type": "address"
        }
      ],
      "stateMutability": "view",
      "type": "function"
    },
    {
      "inputs": [],
      "name": "want",
      "outputs": [
        {
          "internalType": "address",
          "name": "",
          "type": "address"
        }
      ],
      "stateMutability": "view",
      "type": "function"
    },
    {
      "inputs": [],
      "name": "weth",
      "outputs": [
        {
          "internalType": "address",
          "name": "",
          "type": "address"
        }
      ],
      "stateMutability": "view",
      "type": "function"
    },
    {
      "inputs": [
        {
          "internalType": "address",
          "name": "_harvester",
          "type": "address"
        }
      ],
      "name": "whitelistHarvester",
      "outputs": [],
      "stateMutability": "nonpayable",
      "type": "function"
    },
    {
      "inputs": [
        {
          "internalType": "uint256",
          "name": "_amount",
          "type": "uint256"
        }
      ],
      "name": "withdraw",
      "outputs": [],
      "stateMutability": "nonpayable",
      "type": "function"
    },
    {
      "inputs": [
        {
          "internalType": "contract IERC20",
          "name": "_asset",
          "type": "address"
        }
      ],
      "name": "withdraw",
      "outputs": [
        {
          "internalType": "uint256",
          "name": "balance",
          "type": "uint256"
        }
      ],
      "stateMutability": "nonpayable",
      "type": "function"
    },
    {
      "inputs": [],
      "name": "withdrawAll",
      "outputs": [
        {
          "internalType": "uint256",
          "name": "balance",
          "type": "uint256"
        }
      ],
      "stateMutability": "nonpayable",
      "type": "function"
    },
    {
      "inputs": [
        {
          "internalType": "uint256",
          "name": "_amount",
          "type": "uint256"
        }
      ],
      "name": "withdrawForSwap",
      "outputs": [
        {
          "internalType": "uint256",
          "name": "balance",
          "type": "uint256"
        }
      ],
      "stateMutability": "nonpayable",
      "type": "function"
    },
    {
      "inputs": [],
      "name": "withdrawalDevFundFee",
      "outputs": [
        {
          "internalType": "uint256",
          "name": "",
          "type": "uint256"
        }
      ],
      "stateMutability": "view",
      "type": "function"
    },
    {
      "inputs": [],
      "name": "withdrawalDevFundMax",
      "outputs": [
        {
          "internalType": "uint256",
          "name": "",
          "type": "uint256"
        }
      ],
      "stateMutability": "view",
      "type": "function"
    },
    {
      "inputs": [],
      "name": "withdrawalTreasuryFee",
      "outputs": [
        {
          "internalType": "uint256",
          "name": "",
          "type": "uint256"
        }
      ],
      "stateMutability": "view",
      "type": "function"
    },
    {
      "inputs": [],
      "name": "withdrawalTreasuryMax",
      "outputs": [
        {
          "internalType": "uint256",
          "name": "",
          "type": "uint256"
        }
      ],
      "stateMutability": "view",
      "type": "function"
    }
  ],
  "transactionHash": "0x1a10c2affc931caba4cd777a91ef1246be3f8c3f530ec4be723788fd569c9532",
  "args": [
    "0x68c3a95b35c45db5db67ed83c43305052fad6e04",
    "0x68c3a95b35c45db5db67ed83c43305052fad6e04",
    "0x80e22d271de6097c9a0296f03767e729bb8da007",
    "0x68c3a95b35c45db5db67ed83c43305052fad6e04",
    "0xCc18b67AB02Ea402E4A9f4702523E8623e3C3a80",
    "0xCc18b67AB02Ea402E4A9f4702523E8623e3C3a80",
    "0xC36824905dfF2eAAEE7EcC09fCC63abc0af5Abc5"
  ],
  "solcInputHash": "43390728b465b231ad73d91fc9109659",
  "bytecode": "0x60806040526107d06000908155600181905560028190556003819055600c80546001600160a01b0319908116737a250d5630b4cf539739df2c5dacb4c659f2488d17909155600d8054821673d9e1ce17f2641f24ae83637ab66a2cca9c378b9f17905560108054821673106538cc16f938776c7c180186975bca23875287179055601180548216736b175474e89094c44da98b954eedeac495271d0f17905560139190915560148054821673190503cfbe97d77e83dedfc550c79efd6e2e799f17905560158054909116733449fc1cd036255ba1eb19d65ff4ba2b8903a69a179055348015620000ee57600080fd5b50604051620031e3380380620031e3833981810160405260e08110156200011457600080fd5b508051602082015160408301516060840151608085015160a086015160c09096015160155460145496979596949593949293926001600160a01b03918216911681898989898989898888888888888888888787878787878787876200017857600080fd5b6001600160a01b0387166200018c57600080fd5b6001600160a01b038616620001a057600080fd5b6001600160a01b038516620001b457600080fd5b6001600160a01b038416620001c857600080fd5b87600460006101000a8154816001600160a01b0302191690836001600160a01b0316021790555086600560006101000a8154816001600160a01b0302191690836001600160a01b0316021790555085600760006101000a8154816001600160a01b0302191690836001600160a01b0316021790555084600660006101000a8154816001600160a01b0302191690836001600160a01b0316021790555083600860006101000a8154816001600160a01b0302191690836001600160a01b0316021790555082600960006101000a8154816001600160a01b0302191690836001600160a01b0316021790555081600b60006101000a8154816001600160a01b0302191690836001600160a01b0316021790555080600a60006101000a8154816001600160a01b0302191690836001600160a01b03160217905550505050505050505088600f60006101000a8154816001600160a01b0302191690836001600160a01b0316021790555050505050505050505089601260006101000a8154816001600160a01b0302191690836001600160a01b03160217905550601160009054906101000a90046001600160a01b03166001600160a01b031663095ea7b3600c60009054906101000a90046001600160a01b03166000196040518363ffffffff1660e01b815260040180836001600160a01b03166001600160a01b0316815260200182815260200192505050602060405180830381600087803b158015620003ec57600080fd5b505af115801562000401573d6000803e3d6000fd5b505050506040513d60208110156200041857600080fd5b5050601054600c546040805163095ea7b360e01b81526001600160a01b03928316600482015260001960248201529051919092169163095ea7b39160448083019260209291908290030181600087803b1580156200047557600080fd5b505af11580156200048a573d6000803e3d6000fd5b505050506040513d6020811015620004a157600080fd5b50505050505050505050505050505050505050612d1f80620004c46000396000f3fe6080604052600436106103355760003560e01c806382378594116101ab578063aced73bd116100f7578063c7b9d53011610095578063d33219b41161006f578063d33219b414610a25578063f4b9fa7514610a3a578063f77c479114610a4f578063fe1f8f7a1461061857610335565b8063c7b9d530146109c8578063d0e30db0146109fb578063d21220a714610a1057610335565b8063be040fb0116100d1578063be040fb01461094a578063c1a3d44c1461095f578063c6223e2614610974578063c65e32421461099e57610335565b8063aced73bd146108cf578063b9e3748914610902578063bdacb3031461091757610335565b806392eefe9b116101645780639ec5a8941161013e5780639ec5a89414610848578063a8aa1b311461085d578063ab033ea914610872578063ab73e433146108a557610335565b806392eefe9b146107d6578063965fa21e146108095780639b26a4841461081e57610335565b80638237859414610711578063853828b61461073b578063879765831461075057806388993f22146107975780638ccdbb70146107ac5780638ee624a9146107c157610335565b80633656b20b1161028557806351f3d0b8116102235780635aa6e675116101fd5780635aa6e675146106bd57806364c9ec6f146106d25780636d13582c146106e7578063722713f7146106fc57610335565b806351f3d0b81461066057806354df7b631461067557806359739ec4146106a857610335565b80634641257d1161025f5780634641257d14610603578063479119be146106185780634fe809cc1461058557806351cff8d91461062d57610335565b80633656b20b146105855780633fc8cef3146105d957806344df8e70146105ee57610335565b80631f1fcd51116102f257806325802756116102cc578063258027561461057057806326e886c6146105855780632e1a7d4d1461059a57806332ac1f27146105c457610335565b80631f1fcd51146105005780631fe4a68614610531578063249fb9b41461054657610335565b806304d152eb1461033a5780630547104d14610361578063115880861461037657806317d7de7c1461038b57806318eb0e0b146104155780631cff79cd1461044a575b600080fd5b34801561034657600080fd5b5061034f610a64565b60408051918252519081900360200190f35b34801561036d57600080fd5b5061034f610a6a565b34801561038257600080fd5b5061034f610ae5565b34801561039757600080fd5b506103a0610b30565b6040805160208082528351818301528351919283929083019185019080838360005b838110156103da5781810151838201526020016103c2565b50505050905090810190601f1680156104075780820380516001836020036101000a031916815260200191505b509250505060405180910390f35b34801561042157600080fd5b506104486004803603602081101561043857600080fd5b50356001600160a01b0316610b5a565b005b6103a06004803603604081101561046057600080fd5b6001600160a01b03823516919081019060408101602082013564010000000081111561048b57600080fd5b82018360208201111561049d57600080fd5b803590602001918460018302840111640100000000831117156104bf57600080fd5b91908080601f016020809104026020016040519081016040528093929190818152602001838380828437600092019190915250929550610be0945050505050565b34801561050c57600080fd5b50610515610cc3565b604080516001600160a01b039092168252519081900360200190f35b34801561053d57600080fd5b50610515610cd2565b34801561055257600080fd5b506104486004803603602081101561056957600080fd5b5035610ce1565b34801561057c57600080fd5b50610515610d31565b34801561059157600080fd5b5061034f610d40565b3480156105a657600080fd5b50610448600480360360208110156105bd57600080fd5b5035610d46565b3480156105d057600080fd5b50610515611083565b3480156105e557600080fd5b50610515611092565b3480156105fa57600080fd5b506105156110aa565b34801561060f57600080fd5b506104486110b9565b34801561062457600080fd5b5061034f611365565b34801561063957600080fd5b5061034f6004803603602081101561065057600080fd5b50356001600160a01b031661136c565b34801561066c57600080fd5b5061034f6114a2565b34801561068157600080fd5b506104486004803603602081101561069857600080fd5b50356001600160a01b03166114a8565b3480156106b457600080fd5b5061034f611531565b3480156106c957600080fd5b50610515611537565b3480156106de57600080fd5b50610515611546565b3480156106f357600080fd5b50610515611555565b34801561070857600080fd5b5061034f611564565b34801561071d57600080fd5b506104486004803603602081101561073457600080fd5b503561158a565b34801561074757600080fd5b5061034f6115da565b34801561075c57600080fd5b506107836004803603602081101561077357600080fd5b50356001600160a01b0316611794565b604080519115158252519081900360200190f35b3480156107a357600080fd5b5061034f6117a9565b3480156107b857600080fd5b5061034f6117af565b3480156107cd57600080fd5b506105156117b5565b3480156107e257600080fd5b50610448600480360360208110156107f957600080fd5b50356001600160a01b03166117c4565b34801561081557600080fd5b5061034f611831565b34801561082a57600080fd5b506104486004803603602081101561084157600080fd5b5035611a5c565b34801561085457600080fd5b50610515611aac565b34801561086957600080fd5b50610515611abb565b34801561087e57600080fd5b506104486004803603602081101561089557600080fd5b50356001600160a01b0316611ad3565b3480156108b157600080fd5b50610448600480360360208110156108c857600080fd5b5035611b42565b3480156108db57600080fd5b50610448600480360360208110156108f257600080fd5b50356001600160a01b0316611b92565b34801561090e57600080fd5b50610515611bff565b34801561092357600080fd5b506104486004803603602081101561093a57600080fd5b50356001600160a01b0316611c0e565b34801561095657600080fd5b50610515611c7b565b34801561096b57600080fd5b5061034f611c8a565b34801561098057600080fd5b5061034f6004803603602081101561099757600080fd5b5035611cd9565b3480156109aa57600080fd5b50610448600480360360208110156109c157600080fd5b5035611e97565b3480156109d457600080fd5b50610448600480360360208110156109eb57600080fd5b50356001600160a01b0316611ee7565b348015610a0757600080fd5b50610448611f56565b348015610a1c57600080fd5b50610515612084565b348015610a3157600080fd5b50610515612093565b348015610a4657600080fd5b506105156120a2565b348015610a5b57600080fd5b506105156120b1565b60135481565b600f54604080516246613160e11b815230600482015290516000926001600160a01b031691628cc262916024808301926020929190829003018186803b158015610ab357600080fd5b505afa158015610ac7573d6000803e3d6000fd5b505050506040513d6020811015610add57600080fd5b505190505b90565b600f54604080516370a0823160e01b815230600482015290516000926001600160a01b0316916370a08231916024808301926020929190829003018186803b158015610ab357600080fd5b60408051808201909152601081526f5374726174656779426173697342616360801b602082015290565b6005546001600160a01b0316331480610b7d57506007546001600160a01b031633145b610bbf576040805162461bcd60e51b815260206004820152600e60248201526d1b9bdd08185d5d1a1bdc9a5e995960921b604482015290519081900360640190fd5b6001600160a01b03166000908152600e60205260409020805460ff19169055565b6008546060906001600160a01b03163314610c2e576040805162461bcd60e51b81526020600482015260096024820152682174696d656c6f636b60b81b604482015290519081900360640190fd5b6001600160a01b038316610c73576040805162461bcd60e51b8152602060048201526007602482015266085d185c99d95d60ca1b604482015290519081900360640190fd5b600080835160208501866113885a03f43d6040519250601f19601f6020830101168301604052808352806000602085013e811560018114610cb357610cba565b8160208501fd5b50505092915050565b6004546001600160a01b031681565b6007546001600160a01b031681565b6008546001600160a01b03163314610d2c576040805162461bcd60e51b81526020600482015260096024820152682174696d656c6f636b60b81b604482015290519081900360640190fd5b600055565b6010546001600160a01b031681565b61271081565b6006546001600160a01b03163314610d93576040805162461bcd60e51b815260206004820152600b60248201526a10b1b7b73a3937b63632b960a91b604482015290519081900360640190fd5b60048054604080516370a0823160e01b81523093810193909352516000926001600160a01b03909216916370a08231916024808301926020929190829003018186803b158015610de257600080fd5b505afa158015610df6573d6000803e3d6000fd5b505050506040513d6020811015610e0c57600080fd5b5051905081811015610e4557610e30610e2b838363ffffffff6120c016565b61210b565b9150610e42828263ffffffff61217516565b91505b6000610e6f620186a0610e63600354866121cf90919063ffffffff16565b9063ffffffff61222816565b9050610f07600660009054906101000a90046001600160a01b03166001600160a01b0316638d8f1e676040518163ffffffff1660e01b815260040160206040518083038186803b158015610ec257600080fd5b505afa158015610ed6573d6000803e3d6000fd5b505050506040513d6020811015610eec57600080fd5b50516004546001600160a01b0316908363ffffffff61226a16565b6000610f25620186a0610e63600254876121cf90919063ffffffff16565b9050610f78600660009054906101000a90046001600160a01b03166001600160a01b03166361d027b36040518163ffffffff1660e01b815260040160206040518083038186803b158015610ec257600080fd5b6006546004805460408051632988bb9f60e21b81526001600160a01b039283169381019390935251600093919091169163a622ee7c916024808301926020929190829003018186803b158015610fcd57600080fd5b505afa158015610fe1573d6000803e3d6000fd5b505050506040513d6020811015610ff757600080fd5b505190506001600160a01b03811661103f576040805162461bcd60e51b8152602060048201526006602482015265085d985d5b1d60d21b604482015290519081900360640190fd5b61107c8161106384611057898863ffffffff6120c016565b9063ffffffff6120c016565b6004546001600160a01b0316919063ffffffff61226a16565b5050505050565b6015546001600160a01b031681565b73c02aaa39b223fe8d0a0e5c4f27ead9083c756cc281565b600b546001600160a01b031681565b336000908152600e602052604090205460ff16806110e157506005546001600160a01b031633145b806110f657506007546001600160a01b031633145b6110ff57600080fd5b604080516003808252608082019092526060916020820183803683375050600f5460408051631e8c5c8960e11b815290519394506001600160a01b0390911692633d18b9129250600480830192600092919082900301818387803b15801561116657600080fd5b505af115801561117a573d6000803e3d6000fd5b5050601054604080516370a0823160e01b81523060048201529051600094506001600160a01b0390921692506370a08231916024808301926020929190829003018186803b1580156111cb57600080fd5b505afa1580156111df573d6000803e3d6000fd5b505050506040513d60208110156111f557600080fd5b50519050801561135957600061121c612710610e63601354856121cf90919063ffffffff16565b90506112b4600660009054906101000a90046001600160a01b03166001600160a01b03166361d027b36040518163ffffffff1660e01b815260040160206040518083038186803b15801561126f57600080fd5b505afa158015611283573d6000803e3d6000fd5b505050506040513d602081101561129957600080fd5b50516010546001600160a01b0316908363ffffffff61226a16565b60105483516001600160a01b039091169084906000906112d057fe5b6001600160a01b0392831660209182029290920101526011548451911690849060019081106112fb57fe5b6001600160a01b03928316602091820292909201015260125484519116908490600290811061132657fe5b6001600160a01b039092166020928302919091019091015261135783611352848463ffffffff6120c016565b6122c1565b505b61136161248c565b5050565b620186a081565b6006546000906001600160a01b031633146113bc576040805162461bcd60e51b815260206004820152600b60248201526a10b1b7b73a3937b63632b960a91b604482015290519081900360640190fd5b6004546001600160a01b0383811691161415611408576040805162461bcd60e51b815260206004808301919091526024820152631dd85b9d60e21b604482015290519081900360640190fd5b604080516370a0823160e01b815230600482015290516001600160a01b038416916370a08231916024808301926020929190829003018186803b15801561144e57600080fd5b505afa158015611462573d6000803e3d6000fd5b505050506040513d602081101561147857600080fd5b505160065490915061149d906001600160a01b0384811691168363ffffffff61226a16565b919050565b60035481565b6005546001600160a01b03163314806114cb57506007546001600160a01b031633145b61150d576040805162461bcd60e51b815260206004820152600e60248201526d1b9bdd08185d5d1a1bdc9a5e995960921b604482015290519081900360640190fd5b6001600160a01b03166000908152600e60205260409020805460ff19166001179055565b60005481565b6005546001600160a01b031681565b600a546001600160a01b031681565b600d546001600160a01b031681565b6000611585611571610ae5565b611579611c8a565b9063ffffffff61217516565b905090565b6008546001600160a01b031633146115d5576040805162461bcd60e51b81526020600482015260096024820152682174696d656c6f636b60b81b604482015290519081900360640190fd5b600255565b6006546000906001600160a01b0316331461162a576040805162461bcd60e51b815260206004820152600b60248201526a10b1b7b73a3937b63632b960a91b604482015290519081900360640190fd5b611632612752565b60048054604080516370a0823160e01b81523093810193909352516001600160a01b03909116916370a08231916024808301926020929190829003018186803b15801561167e57600080fd5b505afa158015611692573d6000803e3d6000fd5b505050506040513d60208110156116a857600080fd5b50516006546004805460408051632988bb9f60e21b81526001600160a01b03928316938101939093525193945060009392169163a622ee7c91602480820192602092909190829003018186803b15801561170157600080fd5b505afa158015611715573d6000803e3d6000fd5b505050506040513d602081101561172b57600080fd5b505190506001600160a01b038116611773576040805162461bcd60e51b8152602060048201526006602482015265085d985d5b1d60d21b604482015290519081900360640190fd5b600454611790906001600160a01b0316828463ffffffff61226a16565b5090565b600e6020526000908152604090205460ff1681565b60015481565b60025481565b6014546001600160a01b031681565b6008546001600160a01b0316331461180f576040805162461bcd60e51b81526020600482015260096024820152682174696d656c6f636b60b81b604482015290519081900360640190fd5b600680546001600160a01b0319166001600160a01b0392909216919091179055565b60008061183c61275d565b9050670de0b6b3a7640000811115611858576000915050610ae2565b600a54600b54604080516370a0823160e01b81526001600160a01b03928316600482015290516119569392909216916370a0823191602480820192602092909190829003018186803b1580156118ad57600080fd5b505afa1580156118c1573d6000803e3d6000fd5b505050506040513d60208110156118d757600080fd5b5051600a54604080516318160ddd60e01b815290516001600160a01b03909216916318160ddd91600480820192602092909190829003018186803b15801561191e57600080fd5b505afa158015611932573d6000803e3d6000fd5b505050506040513d602081101561194857600080fd5b50519063ffffffff6120c016565b60095460408051631c845d8560e31b81529051611a18926001600160a01b03169163e422ec28916004808301926020929190829003018186803b15801561199c57600080fd5b505afa1580156119b0573d6000803e3d6000fd5b505050506040513d60208110156119c657600080fd5b505160048054600954604080516370a0823160e01b81526001600160a01b0392831694810194909452519116916370a08231916024808301926020929190829003018186803b15801561191e57600080fd5b1115611a28576000915050610ae2565b611a56600a610e636003611a4a670de0b6b3a76400008663ffffffff6120c016565b9063ffffffff6121cf16565b91505090565b6008546001600160a01b03163314611aa7576040805162461bcd60e51b81526020600482015260096024820152682174696d656c6f636b60b81b604482015290519081900360640190fd5b601355565b600f546001600160a01b031681565b73d4405f0704621dbe9d4dea60e128e0c3b26bddbd81565b6005546001600160a01b03163314611b20576040805162461bcd60e51b815260206004820152600b60248201526a21676f7665726e616e636560a81b604482015290519081900360640190fd5b600580546001600160a01b0319166001600160a01b0392909216919091179055565b6008546001600160a01b03163314611b8d576040805162461bcd60e51b81526020600482015260096024820152682174696d656c6f636b60b81b604482015290519081900360640190fd5b600355565b6008546001600160a01b03163314611bdd576040805162461bcd60e51b81526020600482015260096024820152682174696d656c6f636b60b81b604482015290519081900360640190fd5b600b80546001600160a01b0319166001600160a01b0392909216919091179055565b600c546001600160a01b031681565b6008546001600160a01b03163314611c59576040805162461bcd60e51b81526020600482015260096024820152682174696d656c6f636b60b81b604482015290519081900360640190fd5b600880546001600160a01b0319166001600160a01b0392909216919091179055565b6009546001600160a01b031681565b60048054604080516370a0823160e01b81523093810193909352516000926001600160a01b03909216916370a08231916024808301926020929190829003018186803b158015610ab357600080fd5b6006546000906001600160a01b03163314611d29576040805162461bcd60e51b815260206004820152600b60248201526a10b1b7b73a3937b63632b960a91b604482015290519081900360640190fd5b611d328261210b565b5060048054604080516370a0823160e01b81523093810193909352516001600160a01b03909116916370a08231916024808301926020929190829003018186803b158015611d7f57600080fd5b505afa158015611d93573d6000803e3d6000fd5b505050506040513d6020811015611da957600080fd5b50516006546004805460408051632988bb9f60e21b81526001600160a01b03928316938101939093525193945060009392169163a622ee7c91602480820192602092909190829003018186803b158015611e0257600080fd5b505afa158015611e16573d6000803e3d6000fd5b505050506040513d6020811015611e2c57600080fd5b505190506001600160a01b038116611e74576040805162461bcd60e51b8152602060048201526006602482015265085d985d5b1d60d21b604482015290519081900360640190fd5b600454611e91906001600160a01b0316828463ffffffff61226a16565b50919050565b6008546001600160a01b03163314611ee2576040805162461bcd60e51b81526020600482015260096024820152682174696d656c6f636b60b81b604482015290519081900360640190fd5b600155565b6005546001600160a01b03163314611f34576040805162461bcd60e51b815260206004820152600b60248201526a21676f7665726e616e636560a81b604482015290519081900360640190fd5b600780546001600160a01b0319166001600160a01b0392909216919091179055565b60048054604080516370a0823160e01b81523093810193909352516000926001600160a01b03909216916370a08231916024808301926020929190829003018186803b158015611fa557600080fd5b505afa158015611fb9573d6000803e3d6000fd5b505050506040513d6020811015611fcf57600080fd5b50519050801561208157600f54600454611ffd916001600160a01b039182169116600063ffffffff61281e16565b600f54600454612020916001600160a01b0391821691168363ffffffff61281e16565b600f546040805163534a7e1d60e11b81526004810184905290516001600160a01b039092169163a694fc3a9160248082019260009290919082900301818387803b15801561206d57600080fd5b505af115801561107c573d6000803e3d6000fd5b50565b6012546001600160a01b031681565b6008546001600160a01b031681565b6011546001600160a01b031681565b6006546001600160a01b031681565b600061210283836040518060400160405280601e81526020017f536166654d6174683a207375627472616374696f6e206f766572666c6f770000815250612931565b90505b92915050565b600f5460408051632e1a7d4d60e01b81526004810184905290516000926001600160a01b031691632e1a7d4d916024808301928692919082900301818387803b15801561215757600080fd5b505af115801561216b573d6000803e3d6000fd5b5093949350505050565b600082820183811015612102576040805162461bcd60e51b815260206004820152601b60248201527f536166654d6174683a206164646974696f6e206f766572666c6f770000000000604482015290519081900360640190fd5b6000826121de57506000612105565b828202828482816121eb57fe5b04146121025760405162461bcd60e51b8152600401808060200182810382526021815260200180612c696021913960400191505060405180910390fd5b600061210283836040518060400160405280601a81526020017f536166654d6174683a206469766973696f6e206279207a65726f0000000000008152506129c8565b604080516001600160a01b038416602482015260448082018490528251808303909101815260649091019091526020810180516001600160e01b031663a9059cbb60e01b1790526122bc908490612a2d565b505050565b60006001600160a01b0316826001815181106122d957fe5b60200260200101516001600160a01b031614156122f557600080fd5b600c546001600160a01b03166338ed1739826000853061231c42603c63ffffffff61217516565b6040518663ffffffff1660e01b81526004018086815260200185815260200180602001846001600160a01b03166001600160a01b03168152602001838152602001828103825285818151815260200191508051906020019060200280838360005b8381101561239557818101518382015260200161237d565b505050509050019650505050505050600060405180830381600087803b1580156123be57600080fd5b505af11580156123d2573d6000803e3d6000fd5b505050506040513d6000823e601f3d908101601f1916820160405260208110156123fb57600080fd5b810190808051604051939291908464010000000082111561241b57600080fd5b90830190602082018581111561243057600080fd5b825186602082028301116401000000008211171561244d57600080fd5b82525081516020918201928201910280838360005b8381101561247a578181015183820152602001612462565b50505050905001604052505050505050565b60048054604080516370a0823160e01b81523093810193909352516000926001600160a01b03909216916370a08231916024808301926020929190829003018186803b1580156124db57600080fd5b505afa1580156124ef573d6000803e3d6000fd5b505050506040513d602081101561250557600080fd5b50519050801561208157600654604080516361d027b360e01b8152905161259d926001600160a01b0316916361d027b3916004808301926020929190829003018186803b15801561255557600080fd5b505afa158015612569573d6000803e3d6000fd5b505050506040513d602081101561257f57600080fd5b50516000546110639061271090610e6390869063ffffffff6121cf16565b60065460408051638d8f1e6760e01b8152905161262b926001600160a01b031691638d8f1e67916004808301926020929190829003018186803b1580156125e357600080fd5b505afa1580156125f7573d6000803e3d6000fd5b505050506040513d602081101561260d57600080fd5b50516001546110639061271090610e6390869063ffffffff6121cf16565b6004546009546001600160a01b039182169163095ea7b3911661265c61264f611831565b859063ffffffff6121cf16565b6040518363ffffffff1660e01b815260040180836001600160a01b03166001600160a01b0316815260200182815260200192505050602060405180830381600087803b1580156126ab57600080fd5b505af11580156126bf573d6000803e3d6000fd5b505050506040513d60208110156126d557600080fd5b50506009546001600160a01b031663eca34d2460016126f561264f611831565b6040518363ffffffff1660e01b81526004018083815260200182815260200192505050600060405180830381600087803b15801561273257600080fd5b505af1158015612746573d6000803e3d6000fd5b50505050612081611f56565b612081610e2b610ae5565b600080600073d4405f0704621dbe9d4dea60e128e0c3b26bddbd6001600160a01b0316630902f1ac6040518163ffffffff1660e01b815260040160606040518083038186803b1580156127af57600080fd5b505afa1580156127c3573d6000803e3d6000fd5b505050506040513d60608110156127d957600080fd5b50805160209091015190925090506128176dffffffffffffffffffffffffffff80841690610e63908416670de0b6b3a764000063ffffffff6121cf16565b9250505090565b8015806128a4575060408051636eb1769f60e11b81523060048201526001600160a01b03848116602483015291519185169163dd62ed3e91604480820192602092909190829003018186803b15801561287657600080fd5b505afa15801561288a573d6000803e3d6000fd5b505050506040513d60208110156128a057600080fd5b5051155b6128df5760405162461bcd60e51b8152600401808060200182810382526036815260200180612cb46036913960400191505060405180910390fd5b604080516001600160a01b038416602482015260448082018490528251808303909101815260649091019091526020810180516001600160e01b031663095ea7b360e01b1790526122bc908490612a2d565b600081848411156129c05760405162461bcd60e51b81526004018080602001828103825283818151815260200191508051906020019080838360005b8381101561298557818101518382015260200161296d565b50505050905090810190601f1680156129b25780820380516001836020036101000a031916815260200191505b509250505060405180910390fd5b505050900390565b60008183612a175760405162461bcd60e51b815260206004820181815283516024840152835190928392604490910191908501908083836000831561298557818101518382015260200161296d565b506000838581612a2357fe5b0495945050505050565b6060612a82826040518060400160405280602081526020017f5361666545524332303a206c6f772d6c6576656c2063616c6c206661696c6564815250856001600160a01b0316612ade9092919063ffffffff16565b8051909150156122bc57808060200190516020811015612aa157600080fd5b50516122bc5760405162461bcd60e51b815260040180806020018281038252602a815260200180612c8a602a913960400191505060405180910390fd5b6060612aed8484600085612af5565b949350505050565b6060612b0085612c62565b612b51576040805162461bcd60e51b815260206004820152601d60248201527f416464726573733a2063616c6c20746f206e6f6e2d636f6e7472616374000000604482015290519081900360640190fd5b60006060866001600160a01b031685876040518082805190602001908083835b60208310612b905780518252601f199092019160209182019101612b71565b6001836020036101000a03801982511681845116808217855250505050505090500191505060006040518083038185875af1925050503d8060008114612bf2576040519150601f19603f3d011682016040523d82523d6000602084013e612bf7565b606091505b50915091508115612c0b579150612aed9050565b805115612c1b5780518082602001fd5b60405162461bcd60e51b815260206004820181815286516024840152865187939192839260440191908501908083836000831561298557818101518382015260200161296d565b3b15159056fe536166654d6174683a206d756c7469706c69636174696f6e206f766572666c6f775361666545524332303a204552433230206f7065726174696f6e20646964206e6f7420737563636565645361666545524332303a20617070726f76652066726f6d206e6f6e2d7a65726f20746f206e6f6e2d7a65726f20616c6c6f77616e6365a2646970667358221220c28aa9a4f67a888004c432de17c02a996f3f4c5ada0f78dcf1f1440c111c078464736f6c63430006070033",
  "devdoc": {
    "methods": {}
  },
  "userdoc": {
    "methods": {}
  },
  "storageLayout": {
    "storage": [
      {
        "astId": 3561,
        "contract": "src/strategies/basis/strategy-basis-bac.sol:StrategyBasisBac",
        "label": "performanceTreasuryFee",
        "offset": 0,
        "slot": "0",
        "type": "t_uint256"
      },
      {
        "astId": 3567,
        "contract": "src/strategies/basis/strategy-basis-bac.sol:StrategyBasisBac",
        "label": "performanceDevFee",
        "offset": 0,
        "slot": "1",
        "type": "t_uint256"
      },
      {
        "astId": 3573,
        "contract": "src/strategies/basis/strategy-basis-bac.sol:StrategyBasisBac",
        "label": "withdrawalTreasuryFee",
        "offset": 0,
        "slot": "2",
        "type": "t_uint256"
      },
      {
        "astId": 3579,
        "contract": "src/strategies/basis/strategy-basis-bac.sol:StrategyBasisBac",
        "label": "withdrawalDevFundFee",
        "offset": 0,
        "slot": "3",
        "type": "t_uint256"
      },
      {
        "astId": 3584,
        "contract": "src/strategies/basis/strategy-basis-bac.sol:StrategyBasisBac",
        "label": "want",
        "offset": 0,
        "slot": "4",
        "type": "t_address"
      },
      {
        "astId": 3592,
        "contract": "src/strategies/basis/strategy-basis-bac.sol:StrategyBasisBac",
        "label": "governance",
        "offset": 0,
        "slot": "5",
        "type": "t_address"
      },
      {
        "astId": 3594,
        "contract": "src/strategies/basis/strategy-basis-bac.sol:StrategyBasisBac",
        "label": "controller",
        "offset": 0,
        "slot": "6",
        "type": "t_address"
      },
      {
        "astId": 3596,
        "contract": "src/strategies/basis/strategy-basis-bac.sol:StrategyBasisBac",
        "label": "strategist",
        "offset": 0,
        "slot": "7",
        "type": "t_address"
      },
      {
        "astId": 3598,
        "contract": "src/strategies/basis/strategy-basis-bac.sol:StrategyBasisBac",
        "label": "timelock",
        "offset": 0,
        "slot": "8",
        "type": "t_address"
      },
      {
        "astId": 3600,
        "contract": "src/strategies/basis/strategy-basis-bac.sol:StrategyBasisBac",
        "label": "redeem",
        "offset": 0,
        "slot": "9",
        "type": "t_address"
      },
      {
        "astId": 3602,
        "contract": "src/strategies/basis/strategy-basis-bac.sol:StrategyBasisBac",
        "label": "bond",
        "offset": 0,
        "slot": "10",
        "type": "t_address"
      },
      {
        "astId": 3604,
        "contract": "src/strategies/basis/strategy-basis-bac.sol:StrategyBasisBac",
        "label": "burn",
        "offset": 0,
        "slot": "11",
        "type": "t_address"
      },
      {
        "astId": 3607,
        "contract": "src/strategies/basis/strategy-basis-bac.sol:StrategyBasisBac",
        "label": "univ2Router2",
        "offset": 0,
        "slot": "12",
        "type": "t_address"
      },
      {
        "astId": 3610,
        "contract": "src/strategies/basis/strategy-basis-bac.sol:StrategyBasisBac",
        "label": "sushiRouter",
        "offset": 0,
        "slot": "13",
        "type": "t_address"
      },
      {
        "astId": 3614,
        "contract": "src/strategies/basis/strategy-basis-bac.sol:StrategyBasisBac",
        "label": "harvesters",
        "offset": 0,
        "slot": "14",
        "type": "t_mapping(t_address,t_bool)"
      },
      {
        "astId": 4832,
        "contract": "src/strategies/basis/strategy-basis-bac.sol:StrategyBasisBac",
        "label": "rewards",
        "offset": 0,
        "slot": "15",
        "type": "t_address"
      },
      {
        "astId": 4640,
        "contract": "src/strategies/basis/strategy-basis-bac.sol:StrategyBasisBac",
        "label": "bas",
        "offset": 0,
        "slot": "16",
        "type": "t_address"
      },
      {
        "astId": 4643,
        "contract": "src/strategies/basis/strategy-basis-bac.sol:StrategyBasisBac",
        "label": "dai",
        "offset": 0,
        "slot": "17",
        "type": "t_address"
      },
      {
        "astId": 4645,
        "contract": "src/strategies/basis/strategy-basis-bac.sol:StrategyBasisBac",
        "label": "token1",
        "offset": 0,
        "slot": "18",
        "type": "t_address"
      },
      {
        "astId": 4648,
        "contract": "src/strategies/basis/strategy-basis-bac.sol:StrategyBasisBac",
        "label": "keepBAS",
        "offset": 0,
        "slot": "19",
        "type": "t_uint256"
      },
      {
        "astId": 3495,
        "contract": "src/strategies/basis/strategy-basis-bac.sol:StrategyBasisBac",
        "label": "staking_pool",
        "offset": 0,
        "slot": "20",
        "type": "t_address"
      },
      {
        "astId": 3498,
        "contract": "src/strategies/basis/strategy-basis-bac.sol:StrategyBasisBac",
        "label": "bac",
        "offset": 0,
        "slot": "21",
        "type": "t_address"
      }
    ],
    "types": {
      "t_address": {
        "encoding": "inplace",
        "label": "address",
        "numberOfBytes": "20"
      },
      "t_bool": {
        "encoding": "inplace",
        "label": "bool",
        "numberOfBytes": "1"
      },
      "t_mapping(t_address,t_bool)": {
        "encoding": "mapping",
        "key": "t_address",
        "label": "mapping(address => bool)",
        "numberOfBytes": "32",
        "value": "t_bool"
      },
      "t_uint256": {
        "encoding": "inplace",
        "label": "uint256",
        "numberOfBytes": "32"
      }
    }
  }
}