{
  "address": "0x7bc06c482DEAd17c0e297aFbC32f6e63d3846650",
  "abi": [
    {
      "inputs": [
        {
          "internalType": "address",
          "name": "_governance",
          "type": "address"
        },
        {
          "internalType": "address",
          "name": "_strategist",
          "type": "address"
        },
        {
          "internalType": "address",
          "name": "_controller",
          "type": "address"
        },
        {
          "internalType": "address",
          "name": "_timelock",
          "type": "address"
        },
        {
          "internalType": "address",
          "name": "_redeem",
          "type": "address"
        },
        {
          "internalType": "address",
          "name": "_burn",
          "type": "address"
        },
        {
          "internalType": "address",
          "name": "_bond",
          "type": "address"
        }
      ],
      "stateMutability": "nonpayable",
      "type": "constructor"
    },
    {
      "inputs": [],
      "name": "bac",
      "outputs": [
        {
          "internalType": "address",
          "name": "",
          "type": "address"
        }
      ],
      "stateMutability": "view",
      "type": "function"
    },
    {
      "inputs": [],
      "name": "balanceOf",
      "outputs": [
        {
          "internalType": "uint256",
          "name": "",
          "type": "uint256"
        }
      ],
      "stateMutability": "view",
      "type": "function"
    },
    {
      "inputs": [],
      "name": "balanceOfPool",
      "outputs": [
        {
          "internalType": "uint256",
          "name": "",
          "type": "uint256"
        }
      ],
      "stateMutability": "view",
      "type": "function"
    },
    {
      "inputs": [],
      "name": "balanceOfWant",
      "outputs": [
        {
          "internalType": "uint256",
          "name": "",
          "type": "uint256"
        }
      ],
      "stateMutability": "view",
      "type": "function"
    },
    {
      "inputs": [],
      "name": "bas",
      "outputs": [
        {
          "internalType": "address",
          "name": "",
          "type": "address"
        }
      ],
      "stateMutability": "view",
      "type": "function"
    },
    {
      "inputs": [],
      "name": "bond",
      "outputs": [
        {
          "internalType": "address",
          "name": "",
          "type": "address"
        }
      ],
      "stateMutability": "view",
      "type": "function"
    },
    {
      "inputs": [],
      "name": "burn",
      "outputs": [
        {
          "internalType": "address",
          "name": "",
          "type": "address"
        }
      ],
      "stateMutability": "view",
      "type": "function"
    },
    {
      "inputs": [],
      "name": "controller",
      "outputs": [
        {
          "internalType": "address",
          "name": "",
          "type": "address"
        }
      ],
      "stateMutability": "view",
      "type": "function"
    },
    {
      "inputs": [],
      "name": "dai",
      "outputs": [
        {
          "internalType": "address",
          "name": "",
          "type": "address"
        }
      ],
      "stateMutability": "view",
      "type": "function"
    },
    {
      "inputs": [],
      "name": "deposit",
      "outputs": [],
      "stateMutability": "nonpayable",
      "type": "function"
    },
    {
      "inputs": [
        {
          "internalType": "address",
          "name": "_target",
          "type": "address"
        },
        {
          "internalType": "bytes",
          "name": "_data",
          "type": "bytes"
        }
      ],
      "name": "execute",
      "outputs": [
        {
          "internalType": "bytes",
          "name": "response",
          "type": "bytes"
        }
      ],
      "stateMutability": "payable",
      "type": "function"
    },
    {
      "inputs": [],
      "name": "getHarvestable",
      "outputs": [
        {
          "internalType": "uint256",
          "name": "",
          "type": "uint256"
        }
      ],
      "stateMutability": "view",
      "type": "function"
    },
    {
      "inputs": [],
      "name": "getName",
      "outputs": [
        {
          "internalType": "string",
          "name": "",
          "type": "string"
        }
      ],
      "stateMutability": "pure",
      "type": "function"
    },
    {
      "inputs": [],
      "name": "governance",
      "outputs": [
        {
          "internalType": "address",
          "name": "",
          "type": "address"
        }
      ],
      "stateMutability": "view",
      "type": "function"
    },
    {
      "inputs": [],
      "name": "harvest",
      "outputs": [],
      "stateMutability": "nonpayable",
      "type": "function"
    },
    {
      "inputs": [
        {
          "internalType": "address",
          "name": "",
          "type": "address"
        }
      ],
      "name": "harvesters",
      "outputs": [
        {
          "internalType": "bool",
          "name": "",
          "type": "bool"
        }
      ],
      "stateMutability": "view",
      "type": "function"
    },
    {
      "inputs": [],
      "name": "keepBAS",
      "outputs": [
        {
          "internalType": "uint256",
          "name": "",
          "type": "uint256"
        }
      ],
      "stateMutability": "view",
      "type": "function"
    },
    {
      "inputs": [],
      "name": "keepBASMax",
      "outputs": [
        {
          "internalType": "uint256",
          "name": "",
          "type": "uint256"
        }
      ],
      "stateMutability": "view",
      "type": "function"
    },
    {
      "inputs": [],
      "name": "pair",
      "outputs": [
        {
          "internalType": "address",
          "name": "",
          "type": "address"
        }
      ],
      "stateMutability": "view",
      "type": "function"
    },
    {
      "inputs": [],
      "name": "performanceDevFee",
      "outputs": [
        {
          "internalType": "uint256",
          "name": "",
          "type": "uint256"
        }
      ],
      "stateMutability": "view",
      "type": "function"
    },
    {
      "inputs": [],
      "name": "performanceDevMax",
      "outputs": [
        {
          "internalType": "uint256",
          "name": "",
          "type": "uint256"
        }
      ],
      "stateMutability": "view",
      "type": "function"
    },
    {
      "inputs": [],
      "name": "performanceTreasuryFee",
      "outputs": [
        {
          "internalType": "uint256",
          "name": "",
          "type": "uint256"
        }
      ],
      "stateMutability": "view",
      "type": "function"
    },
    {
      "inputs": [],
      "name": "performanceTreasuryMax",
      "outputs": [
        {
          "internalType": "uint256",
          "name": "",
          "type": "uint256"
        }
      ],
      "stateMutability": "view",
      "type": "function"
    },
    {
      "inputs": [],
      "name": "rechargeCash",
      "outputs": [],
      "stateMutability": "nonpayable",
      "type": "function"
    },
    {
      "inputs": [],
      "name": "redeem",
      "outputs": [
        {
          "internalType": "address",
          "name": "",
          "type": "address"
        }
      ],
      "stateMutability": "view",
      "type": "function"
    },
    {
      "inputs": [],
      "name": "redeemFee",
      "outputs": [
        {
          "internalType": "uint256",
          "name": "",
          "type": "uint256"
        }
      ],
      "stateMutability": "view",
      "type": "function"
    },
    {
      "inputs": [
        {
          "internalType": "address",
          "name": "_harvester",
          "type": "address"
        }
      ],
      "name": "revokeHarvester",
      "outputs": [],
      "stateMutability": "nonpayable",
      "type": "function"
    },
    {
      "inputs": [],
      "name": "rewards",
      "outputs": [
        {
          "internalType": "address",
          "name": "",
          "type": "address"
        }
      ],
      "stateMutability": "view",
      "type": "function"
    },
    {
      "inputs": [
        {
          "internalType": "address",
          "name": "_burn",
          "type": "address"
        }
      ],
      "name": "setBurn",
      "outputs": [],
      "stateMutability": "nonpayable",
      "type": "function"
    },
    {
      "inputs": [
        {
          "internalType": "address",
          "name": "_controller",
          "type": "address"
        }
      ],
      "name": "setController",
      "outputs": [],
      "stateMutability": "nonpayable",
      "type": "function"
    },
    {
      "inputs": [
        {
          "internalType": "address",
          "name": "_governance",
          "type": "address"
        }
      ],
      "name": "setGovernance",
      "outputs": [],
      "stateMutability": "nonpayable",
      "type": "function"
    },
    {
      "inputs": [
        {
          "internalType": "uint256",
          "name": "_keepBAS",
          "type": "uint256"
        }
      ],
      "name": "setKeepBAS",
      "outputs": [],
      "stateMutability": "nonpayable",
      "type": "function"
    },
    {
      "inputs": [
        {
          "internalType": "uint256",
          "name": "_performanceDevFee",
          "type": "uint256"
        }
      ],
      "name": "setPerformanceDevFee",
      "outputs": [],
      "stateMutability": "nonpayable",
      "type": "function"
    },
    {
      "inputs": [
        {
          "internalType": "uint256",
          "name": "_performanceTreasuryFee",
          "type": "uint256"
        }
      ],
      "name": "setPerformanceTreasuryFee",
      "outputs": [],
      "stateMutability": "nonpayable",
      "type": "function"
    },
    {
      "inputs": [
        {
          "internalType": "address",
          "name": "_strategist",
          "type": "address"
        }
      ],
      "name": "setStrategist",
      "outputs": [],
      "stateMutability": "nonpayable",
      "type": "function"
    },
    {
      "inputs": [
        {
          "internalType": "address",
          "name": "_timelock",
          "type": "address"
        }
      ],
      "name": "setTimelock",
      "outputs": [],
      "stateMutability": "nonpayable",
      "type": "function"
    },
    {
      "inputs": [
        {
          "internalType": "uint256",
          "name": "_withdrawalDevFundFee",
          "type": "uint256"
        }
      ],
      "name": "setWithdrawalDevFundFee",
      "outputs": [],
      "stateMutability": "nonpayable",
      "type": "function"
    },
    {
      "inputs": [
        {
          "internalType": "uint256",
          "name": "_withdrawalTreasuryFee",
          "type": "uint256"
        }
      ],
      "name": "setWithdrawalTreasuryFee",
      "outputs": [],
      "stateMutability": "nonpayable",
      "type": "function"
    },
    {
      "inputs": [],
      "name": "staking_pool",
      "outputs": [
        {
          "internalType": "address",
          "name": "",
          "type": "address"
        }
      ],
      "stateMutability": "view",
      "type": "function"
    },
    {
      "inputs": [],
      "name": "strategist",
      "outputs": [
        {
          "internalType": "address",
          "name": "",
          "type": "address"
        }
      ],
      "stateMutability": "view",
      "type": "function"
    },
    {
      "inputs": [],
      "name": "sushiRouter",
      "outputs": [
        {
          "internalType": "address",
          "name": "",
          "type": "address"
        }
      ],
      "stateMutability": "view",
      "type": "function"
    },
    {
      "inputs": [],
      "name": "timelock",
      "outputs": [
        {
          "internalType": "address",
          "name": "",
          "type": "address"
        }
      ],
      "stateMutability": "view",
      "type": "function"
    },
    {
      "inputs": [],
      "name": "token1",
      "outputs": [
        {
          "internalType": "address",
          "name": "",
          "type": "address"
        }
      ],
      "stateMutability": "view",
      "type": "function"
    },
    {
      "inputs": [],
      "name": "univ2Router2",
      "outputs": [
        {
          "internalType": "address",
          "name": "",
          "type": "address"
        }
      ],
      "stateMutability": "view",
      "type": "function"
    },
    {
      "inputs": [],
      "name": "want",
      "outputs": [
        {
          "internalType": "address",
          "name": "",
          "type": "address"
        }
      ],
      "stateMutability": "view",
      "type": "function"
    },
    {
      "inputs": [],
      "name": "weth",
      "outputs": [
        {
          "internalType": "address",
          "name": "",
          "type": "address"
        }
      ],
      "stateMutability": "view",
      "type": "function"
    },
    {
      "inputs": [
        {
          "internalType": "address",
          "name": "_harvester",
          "type": "address"
        }
      ],
      "name": "whitelistHarvester",
      "outputs": [],
      "stateMutability": "nonpayable",
      "type": "function"
    },
    {
      "inputs": [
        {
          "internalType": "uint256",
          "name": "_amount",
          "type": "uint256"
        }
      ],
      "name": "withdraw",
      "outputs": [],
      "stateMutability": "nonpayable",
      "type": "function"
    },
    {
      "inputs": [
        {
          "internalType": "contract IERC20",
          "name": "_asset",
          "type": "address"
        }
      ],
      "name": "withdraw",
      "outputs": [
        {
          "internalType": "uint256",
          "name": "balance",
          "type": "uint256"
        }
      ],
      "stateMutability": "nonpayable",
      "type": "function"
    },
    {
      "inputs": [],
      "name": "withdrawAll",
      "outputs": [
        {
          "internalType": "uint256",
          "name": "balance",
          "type": "uint256"
        }
      ],
      "stateMutability": "nonpayable",
      "type": "function"
    },
    {
      "inputs": [
        {
          "internalType": "uint256",
          "name": "_amount",
          "type": "uint256"
        }
      ],
      "name": "withdrawForSwap",
      "outputs": [
        {
          "internalType": "uint256",
          "name": "balance",
          "type": "uint256"
        }
      ],
      "stateMutability": "nonpayable",
      "type": "function"
    },
    {
      "inputs": [],
      "name": "withdrawalDevFundFee",
      "outputs": [
        {
          "internalType": "uint256",
          "name": "",
          "type": "uint256"
        }
      ],
      "stateMutability": "view",
      "type": "function"
    },
    {
      "inputs": [],
      "name": "withdrawalDevFundMax",
      "outputs": [
        {
          "internalType": "uint256",
          "name": "",
          "type": "uint256"
        }
      ],
      "stateMutability": "view",
      "type": "function"
    },
    {
      "inputs": [],
      "name": "withdrawalTreasuryFee",
      "outputs": [
        {
          "internalType": "uint256",
          "name": "",
          "type": "uint256"
        }
      ],
      "stateMutability": "view",
      "type": "function"
    },
    {
      "inputs": [],
      "name": "withdrawalTreasuryMax",
      "outputs": [
        {
          "internalType": "uint256",
          "name": "",
          "type": "uint256"
        }
      ],
      "stateMutability": "view",
      "type": "function"
    }
  ],
  "transactionHash": "0x7550e01dced286374985d7a7c9b98aff743dab3dbffb9cf0eb1a700d607b6092",
  "args": [
    "0x68c3a95b35c45db5db67ed83c43305052fad6e04",
    "0x68c3a95b35c45db5db67ed83c43305052fad6e04",
    "0x80e22d271de6097c9a0296f03767e729bb8da007",
    "0x68c3a95b35c45db5db67ed83c43305052fad6e04",
    "0xCc18b67AB02Ea402E4A9f4702523E8623e3C3a80",
    "0xCc18b67AB02Ea402E4A9f4702523E8623e3C3a80",
    "0xC36824905dfF2eAAEE7EcC09fCC63abc0af5Abc5"
  ],
  "solcInputHash": "ae53ffe2e8d4c566e5b1aef60371efb5",
  "bytecode": "0x60806040526107d06000908155600181905560028190556003819055600c80546001600160a01b0319908116737a250d5630b4cf539739df2c5dacb4c659f2488d17909155600d8054821673d9e1ce17f2641f24ae83637ab66a2cca9c378b9f17905560108054821673106538cc16f938776c7c180186975bca23875287179055601180548216736b175474e89094c44da98b954eedeac495271d0f17905560139190915560148054821673190503cfbe97d77e83dedfc550c79efd6e2e799f17905560158054909116733449fc1cd036255ba1eb19d65ff4ba2b8903a69a179055348015620000ee57600080fd5b50604051620033bb380380620033bb833981810160405260e08110156200011457600080fd5b508051602082015160408301516060840151608085015160a086015160c09096015160155460145496979596949593949293926001600160a01b03918216911681898989898989898888888888888888888787878787878787876200017857600080fd5b6001600160a01b0387166200018c57600080fd5b6001600160a01b038616620001a057600080fd5b6001600160a01b038516620001b457600080fd5b6001600160a01b038416620001c857600080fd5b87600460006101000a8154816001600160a01b0302191690836001600160a01b0316021790555086600560006101000a8154816001600160a01b0302191690836001600160a01b0316021790555085600760006101000a8154816001600160a01b0302191690836001600160a01b0316021790555084600660006101000a8154816001600160a01b0302191690836001600160a01b0316021790555083600860006101000a8154816001600160a01b0302191690836001600160a01b0316021790555082600960006101000a8154816001600160a01b0302191690836001600160a01b0316021790555081600b60006101000a8154816001600160a01b0302191690836001600160a01b0316021790555080600a60006101000a8154816001600160a01b0302191690836001600160a01b03160217905550505050505050505088600f60006101000a8154816001600160a01b0302191690836001600160a01b0316021790555050505050505050505089601260006101000a8154816001600160a01b0302191690836001600160a01b03160217905550601160009054906101000a90046001600160a01b03166001600160a01b031663095ea7b3600c60009054906101000a90046001600160a01b03166000196040518363ffffffff1660e01b815260040180836001600160a01b03166001600160a01b0316815260200182815260200192505050602060405180830381600087803b158015620003ec57600080fd5b505af115801562000401573d6000803e3d6000fd5b505050506040513d60208110156200041857600080fd5b5050601054600c546040805163095ea7b360e01b81526001600160a01b03928316600482015260001960248201529051919092169163095ea7b39160448083019260209291908290030181600087803b1580156200047557600080fd5b505af11580156200048a573d6000803e3d6000fd5b505050506040513d6020811015620004a157600080fd5b50505050505050505050505050505050505050612ef780620004c46000396000f3fe6080604052600436106103505760003560e01c806382378594116101c6578063aced73bd116100f7578063c7b9d53011610095578063d33219b41161006f578063d33219b414610a55578063f4b9fa7514610a6a578063f77c479114610a7f578063fe1f8f7a1461063357610350565b8063c7b9d530146109f8578063d0e30db014610a2b578063d21220a714610a4057610350565b8063be040fb0116100d1578063be040fb01461097a578063c1a3d44c1461098f578063c6223e26146109a4578063c65e3242146109ce57610350565b8063aced73bd146108ff578063b9e3748914610932578063bdacb3031461094757610350565b8063965fa21e116101645780639f37bf0a1161013e5780639f37bf0a14610878578063a8aa1b311461088d578063ab033ea9146108a2578063ab73e433146108d557610350565b8063965fa21e146108245780639b26a484146108395780639ec5a8941461086357610350565b806388993f22116101a057806388993f22146107b25780638ccdbb70146107c75780638ee624a9146107dc57806392eefe9b146107f157610350565b8063823785941461072c578063853828b614610756578063879765831461076b57610350565b80633656b20b116102a057806351f3d0b81161023e5780635aa6e675116102185780635aa6e675146106d857806364c9ec6f146106ed5780636d13582c14610702578063722713f71461071757610350565b806351f3d0b81461067b57806354df7b631461069057806359739ec4146106c357610350565b80634641257d1161027a5780634641257d1461061e578063479119be146106335780634fe809cc146105a057806351cff8d91461064857610350565b80633656b20b146105a05780633fc8cef3146105f457806344df8e701461060957610350565b80631f1fcd511161030d57806325802756116102e7578063258027561461058b57806326e886c6146105a05780632e1a7d4d146105b557806332ac1f27146105df57610350565b80631f1fcd511461051b5780631fe4a6861461054c578063249fb9b41461056157610350565b806304d152eb146103555780630547104d1461037c578063115880861461039157806317d7de7c146103a657806318eb0e0b146104305780631cff79cd14610465575b600080fd5b34801561036157600080fd5b5061036a610a94565b60408051918252519081900360200190f35b34801561038857600080fd5b5061036a610a9a565b34801561039d57600080fd5b5061036a610b15565b3480156103b257600080fd5b506103bb610b60565b6040805160208082528351818301528351919283929083019185019080838360005b838110156103f55781810151838201526020016103dd565b50505050905090810190601f1680156104225780820380516001836020036101000a031916815260200191505b509250505060405180910390f35b34801561043c57600080fd5b506104636004803603602081101561045357600080fd5b50356001600160a01b0316610b8a565b005b6103bb6004803603604081101561047b57600080fd5b6001600160a01b0382351691908101906040810160208201356401000000008111156104a657600080fd5b8201836020820111156104b857600080fd5b803590602001918460018302840111640100000000831117156104da57600080fd5b91908080601f016020809104026020016040519081016040528093929190818152602001838380828437600092019190915250929550610c10945050505050565b34801561052757600080fd5b50610530610cf3565b604080516001600160a01b039092168252519081900360200190f35b34801561055857600080fd5b50610530610d02565b34801561056d57600080fd5b506104636004803603602081101561058457600080fd5b5035610d11565b34801561059757600080fd5b50610530610d61565b3480156105ac57600080fd5b5061036a610d70565b3480156105c157600080fd5b50610463600480360360208110156105d857600080fd5b5035610d76565b3480156105eb57600080fd5b506105306110b3565b34801561060057600080fd5b506105306110c2565b34801561061557600080fd5b506105306110da565b34801561062a57600080fd5b506104636110e9565b34801561063f57600080fd5b5061036a611395565b34801561065457600080fd5b5061036a6004803603602081101561066b57600080fd5b50356001600160a01b031661139c565b34801561068757600080fd5b5061036a6114d2565b34801561069c57600080fd5b50610463600480360360208110156106b357600080fd5b50356001600160a01b03166114d8565b3480156106cf57600080fd5b5061036a611561565b3480156106e457600080fd5b50610530611567565b3480156106f957600080fd5b50610530611576565b34801561070e57600080fd5b50610530611585565b34801561072357600080fd5b5061036a611594565b34801561073857600080fd5b506104636004803603602081101561074f57600080fd5b50356115ba565b34801561076257600080fd5b5061036a61160a565b34801561077757600080fd5b5061079e6004803603602081101561078e57600080fd5b50356001600160a01b03166117c4565b604080519115158252519081900360200190f35b3480156107be57600080fd5b5061036a6117d9565b3480156107d357600080fd5b5061036a6117df565b3480156107e857600080fd5b506105306117e5565b3480156107fd57600080fd5b506104636004803603602081101561081457600080fd5b50356001600160a01b03166117f4565b34801561083057600080fd5b5061036a611861565b34801561084557600080fd5b506104636004803603602081101561085c57600080fd5b5035611a8c565b34801561086f57600080fd5b50610530611adc565b34801561088457600080fd5b50610463611aeb565b34801561089957600080fd5b50610530611c9c565b3480156108ae57600080fd5b50610463600480360360208110156108c557600080fd5b50356001600160a01b0316611cb4565b3480156108e157600080fd5b50610463600480360360208110156108f857600080fd5b5035611d23565b34801561090b57600080fd5b506104636004803603602081101561092257600080fd5b50356001600160a01b0316611d73565b34801561093e57600080fd5b50610530611de0565b34801561095357600080fd5b506104636004803603602081101561096a57600080fd5b50356001600160a01b0316611def565b34801561098657600080fd5b50610530611e5c565b34801561099b57600080fd5b5061036a611e6b565b3480156109b057600080fd5b5061036a600480360360208110156109c757600080fd5b5035611eba565b3480156109da57600080fd5b50610463600480360360208110156109f157600080fd5b5035612078565b348015610a0457600080fd5b5061046360048036036020811015610a1b57600080fd5b50356001600160a01b03166120c8565b348015610a3757600080fd5b50610463612137565b348015610a4c57600080fd5b50610530612251565b348015610a6157600080fd5b50610530612260565b348015610a7657600080fd5b5061053061226f565b348015610a8b57600080fd5b5061053061227e565b60135481565b600f54604080516246613160e11b815230600482015290516000926001600160a01b031691628cc262916024808301926020929190829003018186803b158015610ae357600080fd5b505afa158015610af7573d6000803e3d6000fd5b505050506040513d6020811015610b0d57600080fd5b505190505b90565b600f54604080516370a0823160e01b815230600482015290516000926001600160a01b0316916370a08231916024808301926020929190829003018186803b158015610ae357600080fd5b60408051808201909152601081526f5374726174656779426173697342616360801b602082015290565b6005546001600160a01b0316331480610bad57506007546001600160a01b031633145b610bef576040805162461bcd60e51b815260206004820152600e60248201526d1b9bdd08185d5d1a1bdc9a5e995960921b604482015290519081900360640190fd5b6001600160a01b03166000908152600e60205260409020805460ff19169055565b6008546060906001600160a01b03163314610c5e576040805162461bcd60e51b81526020600482015260096024820152682174696d656c6f636b60b81b604482015290519081900360640190fd5b6001600160a01b038316610ca3576040805162461bcd60e51b8152602060048201526007602482015266085d185c99d95d60ca1b604482015290519081900360640190fd5b600080835160208501866113885a03f43d6040519250601f19601f6020830101168301604052808352806000602085013e811560018114610ce357610cea565b8160208501fd5b50505092915050565b6004546001600160a01b031681565b6007546001600160a01b031681565b6008546001600160a01b03163314610d5c576040805162461bcd60e51b81526020600482015260096024820152682174696d656c6f636b60b81b604482015290519081900360640190fd5b600055565b6010546001600160a01b031681565b61271081565b6006546001600160a01b03163314610dc3576040805162461bcd60e51b815260206004820152600b60248201526a10b1b7b73a3937b63632b960a91b604482015290519081900360640190fd5b60048054604080516370a0823160e01b81523093810193909352516000926001600160a01b03909216916370a08231916024808301926020929190829003018186803b158015610e1257600080fd5b505afa158015610e26573d6000803e3d6000fd5b505050506040513d6020811015610e3c57600080fd5b5051905081811015610e7557610e60610e5b838363ffffffff61228d16565b6122d8565b9150610e72828263ffffffff61234216565b91505b6000610e9f620186a0610e936003548661239c90919063ffffffff16565b9063ffffffff6123f516565b9050610f37600660009054906101000a90046001600160a01b03166001600160a01b0316638d8f1e676040518163ffffffff1660e01b815260040160206040518083038186803b158015610ef257600080fd5b505afa158015610f06573d6000803e3d6000fd5b505050506040513d6020811015610f1c57600080fd5b50516004546001600160a01b0316908363ffffffff61243716565b6000610f55620186a0610e936002548761239c90919063ffffffff16565b9050610fa8600660009054906101000a90046001600160a01b03166001600160a01b03166361d027b36040518163ffffffff1660e01b815260040160206040518083038186803b158015610ef257600080fd5b6006546004805460408051632988bb9f60e21b81526001600160a01b039283169381019390935251600093919091169163a622ee7c916024808301926020929190829003018186803b158015610ffd57600080fd5b505afa158015611011573d6000803e3d6000fd5b505050506040513d602081101561102757600080fd5b505190506001600160a01b03811661106f576040805162461bcd60e51b8152602060048201526006602482015265085d985d5b1d60d21b604482015290519081900360640190fd5b6110ac8161109384611087898863ffffffff61228d16565b9063ffffffff61228d16565b6004546001600160a01b0316919063ffffffff61243716565b5050505050565b6015546001600160a01b031681565b73c02aaa39b223fe8d0a0e5c4f27ead9083c756cc281565b600b546001600160a01b031681565b336000908152600e602052604090205460ff168061111157506005546001600160a01b031633145b8061112657506007546001600160a01b031633145b61112f57600080fd5b604080516003808252608082019092526060916020820183803683375050600f5460408051631e8c5c8960e11b815290519394506001600160a01b0390911692633d18b9129250600480830192600092919082900301818387803b15801561119657600080fd5b505af11580156111aa573d6000803e3d6000fd5b5050601054604080516370a0823160e01b81523060048201529051600094506001600160a01b0390921692506370a08231916024808301926020929190829003018186803b1580156111fb57600080fd5b505afa15801561120f573d6000803e3d6000fd5b505050506040513d602081101561122557600080fd5b50519050801561138957600061124c612710610e936013548561239c90919063ffffffff16565b90506112e4600660009054906101000a90046001600160a01b03166001600160a01b03166361d027b36040518163ffffffff1660e01b815260040160206040518083038186803b15801561129f57600080fd5b505afa1580156112b3573d6000803e3d6000fd5b505050506040513d60208110156112c957600080fd5b50516010546001600160a01b0316908363ffffffff61243716565b60105483516001600160a01b0390911690849060009061130057fe5b6001600160a01b03928316602091820292909201015260115484519116908490600190811061132b57fe5b6001600160a01b03928316602091820292909201015260125484519116908490600290811061135657fe5b6001600160a01b039092166020928302919091019091015261138783611382848463ffffffff61228d16565b61248e565b505b611391612659565b5050565b620186a081565b6006546000906001600160a01b031633146113ec576040805162461bcd60e51b815260206004820152600b60248201526a10b1b7b73a3937b63632b960a91b604482015290519081900360640190fd5b6004546001600160a01b0383811691161415611438576040805162461bcd60e51b815260206004808301919091526024820152631dd85b9d60e21b604482015290519081900360640190fd5b604080516370a0823160e01b815230600482015290516001600160a01b038416916370a08231916024808301926020929190829003018186803b15801561147e57600080fd5b505afa158015611492573d6000803e3d6000fd5b505050506040513d60208110156114a857600080fd5b50516006549091506114cd906001600160a01b0384811691168363ffffffff61243716565b919050565b60035481565b6005546001600160a01b03163314806114fb57506007546001600160a01b031633145b61153d576040805162461bcd60e51b815260206004820152600e60248201526d1b9bdd08185d5d1a1bdc9a5e995960921b604482015290519081900360640190fd5b6001600160a01b03166000908152600e60205260409020805460ff19166001179055565b60005481565b6005546001600160a01b031681565b600a546001600160a01b031681565b600d546001600160a01b031681565b60006115b56115a1610b15565b6115a9611e6b565b9063ffffffff61234216565b905090565b6008546001600160a01b03163314611605576040805162461bcd60e51b81526020600482015260096024820152682174696d656c6f636b60b81b604482015290519081900360640190fd5b600255565b6006546000906001600160a01b0316331461165a576040805162461bcd60e51b815260206004820152600b60248201526a10b1b7b73a3937b63632b960a91b604482015290519081900360640190fd5b61166261292a565b60048054604080516370a0823160e01b81523093810193909352516001600160a01b03909116916370a08231916024808301926020929190829003018186803b1580156116ae57600080fd5b505afa1580156116c2573d6000803e3d6000fd5b505050506040513d60208110156116d857600080fd5b50516006546004805460408051632988bb9f60e21b81526001600160a01b03928316938101939093525193945060009392169163a622ee7c91602480820192602092909190829003018186803b15801561173157600080fd5b505afa158015611745573d6000803e3d6000fd5b505050506040513d602081101561175b57600080fd5b505190506001600160a01b0381166117a3576040805162461bcd60e51b8152602060048201526006602482015265085d985d5b1d60d21b604482015290519081900360640190fd5b6004546117c0906001600160a01b0316828463ffffffff61243716565b5090565b600e6020526000908152604090205460ff1681565b60015481565b60025481565b6014546001600160a01b031681565b6008546001600160a01b0316331461183f576040805162461bcd60e51b81526020600482015260096024820152682174696d656c6f636b60b81b604482015290519081900360640190fd5b600680546001600160a01b0319166001600160a01b0392909216919091179055565b60008061186c612935565b9050670de0b6b3a7640000811115611888576000915050610b12565b600a54600b54604080516370a0823160e01b81526001600160a01b03928316600482015290516119869392909216916370a0823191602480820192602092909190829003018186803b1580156118dd57600080fd5b505afa1580156118f1573d6000803e3d6000fd5b505050506040513d602081101561190757600080fd5b5051600a54604080516318160ddd60e01b815290516001600160a01b03909216916318160ddd91600480820192602092909190829003018186803b15801561194e57600080fd5b505afa158015611962573d6000803e3d6000fd5b505050506040513d602081101561197857600080fd5b50519063ffffffff61228d16565b60095460408051631c845d8560e31b81529051611a48926001600160a01b03169163e422ec28916004808301926020929190829003018186803b1580156119cc57600080fd5b505afa1580156119e0573d6000803e3d6000fd5b505050506040513d60208110156119f657600080fd5b505160048054600954604080516370a0823160e01b81526001600160a01b0392831694810194909452519116916370a08231916024808301926020929190829003018186803b15801561194e57600080fd5b1115611a58576000915050610b12565b611a86600a610e936003611a7a670de0b6b3a76400008663ffffffff61228d16565b9063ffffffff61239c16565b91505090565b6008546001600160a01b03163314611ad7576040805162461bcd60e51b81526020600482015260096024820152682174696d656c6f636b60b81b604482015290519081900360640190fd5b601355565b600f546001600160a01b031681565b60048054604080516370a0823160e01b81523093810193909352516000926001600160a01b03909216916370a08231916024808301926020929190829003018186803b158015611b3a57600080fd5b505afa158015611b4e573d6000803e3d6000fd5b505050506040513d6020811015611b6457600080fd5b50516004546009549192506001600160a01b039081169163095ea7b39116611ba6670de0b6b3a7640000610e93611b99611861565b879063ffffffff61239c16565b6040518363ffffffff1660e01b815260040180836001600160a01b03166001600160a01b0316815260200182815260200192505050602060405180830381600087803b158015611bf557600080fd5b505af1158015611c09573d6000803e3d6000fd5b505050506040513d6020811015611c1f57600080fd5b50506009546001600160a01b031663eca34d246001611c4b670de0b6b3a7640000610e93611b99611861565b6040518363ffffffff1660e01b81526004018083815260200182815260200192505050600060405180830381600087803b158015611c8857600080fd5b505af11580156110ac573d6000803e3d6000fd5b73d4405f0704621dbe9d4dea60e128e0c3b26bddbd81565b6005546001600160a01b03163314611d01576040805162461bcd60e51b815260206004820152600b60248201526a21676f7665726e616e636560a81b604482015290519081900360640190fd5b600580546001600160a01b0319166001600160a01b0392909216919091179055565b6008546001600160a01b03163314611d6e576040805162461bcd60e51b81526020600482015260096024820152682174696d656c6f636b60b81b604482015290519081900360640190fd5b600355565b6008546001600160a01b03163314611dbe576040805162461bcd60e51b81526020600482015260096024820152682174696d656c6f636b60b81b604482015290519081900360640190fd5b600b80546001600160a01b0319166001600160a01b0392909216919091179055565b600c546001600160a01b031681565b6008546001600160a01b03163314611e3a576040805162461bcd60e51b81526020600482015260096024820152682174696d656c6f636b60b81b604482015290519081900360640190fd5b600880546001600160a01b0319166001600160a01b0392909216919091179055565b6009546001600160a01b031681565b60048054604080516370a0823160e01b81523093810193909352516000926001600160a01b03909216916370a08231916024808301926020929190829003018186803b158015610ae357600080fd5b6006546000906001600160a01b03163314611f0a576040805162461bcd60e51b815260206004820152600b60248201526a10b1b7b73a3937b63632b960a91b604482015290519081900360640190fd5b611f13826122d8565b5060048054604080516370a0823160e01b81523093810193909352516001600160a01b03909116916370a08231916024808301926020929190829003018186803b158015611f6057600080fd5b505afa158015611f74573d6000803e3d6000fd5b505050506040513d6020811015611f8a57600080fd5b50516006546004805460408051632988bb9f60e21b81526001600160a01b03928316938101939093525193945060009392169163a622ee7c91602480820192602092909190829003018186803b158015611fe357600080fd5b505afa158015611ff7573d6000803e3d6000fd5b505050506040513d602081101561200d57600080fd5b505190506001600160a01b038116612055576040805162461bcd60e51b8152602060048201526006602482015265085d985d5b1d60d21b604482015290519081900360640190fd5b600454612072906001600160a01b0316828463ffffffff61243716565b50919050565b6008546001600160a01b031633146120c3576040805162461bcd60e51b81526020600482015260096024820152682174696d656c6f636b60b81b604482015290519081900360640190fd5b600155565b6005546001600160a01b03163314612115576040805162461bcd60e51b815260206004820152600b60248201526a21676f7665726e616e636560a81b604482015290519081900360640190fd5b600780546001600160a01b0319166001600160a01b0392909216919091179055565b60048054604080516370a0823160e01b81523093810193909352516000926001600160a01b03909216916370a08231916024808301926020929190829003018186803b15801561218657600080fd5b505afa15801561219a573d6000803e3d6000fd5b505050506040513d60208110156121b057600080fd5b50519050801561224e57600f546004546121de916001600160a01b039182169116600063ffffffff6129f616565b600f54600454612201916001600160a01b0391821691168363ffffffff6129f616565b600f546040805163534a7e1d60e11b81526004810184905290516001600160a01b039092169163a694fc3a9160248082019260009290919082900301818387803b158015611c8857600080fd5b50565b6012546001600160a01b031681565b6008546001600160a01b031681565b6011546001600160a01b031681565b6006546001600160a01b031681565b60006122cf83836040518060400160405280601e81526020017f536166654d6174683a207375627472616374696f6e206f766572666c6f770000815250612b09565b90505b92915050565b600f5460408051632e1a7d4d60e01b81526004810184905290516000926001600160a01b031691632e1a7d4d916024808301928692919082900301818387803b15801561232457600080fd5b505af1158015612338573d6000803e3d6000fd5b5093949350505050565b6000828201838110156122cf576040805162461bcd60e51b815260206004820152601b60248201527f536166654d6174683a206164646974696f6e206f766572666c6f770000000000604482015290519081900360640190fd5b6000826123ab575060006122d2565b828202828482816123b857fe5b04146122cf5760405162461bcd60e51b8152600401808060200182810382526021815260200180612e416021913960400191505060405180910390fd5b60006122cf83836040518060400160405280601a81526020017f536166654d6174683a206469766973696f6e206279207a65726f000000000000815250612ba0565b604080516001600160a01b038416602482015260448082018490528251808303909101815260649091019091526020810180516001600160e01b031663a9059cbb60e01b179052612489908490612c05565b505050565b60006001600160a01b0316826001815181106124a657fe5b60200260200101516001600160a01b031614156124c257600080fd5b600c546001600160a01b03166338ed173982600085306124e942603c63ffffffff61234216565b6040518663ffffffff1660e01b81526004018086815260200185815260200180602001846001600160a01b03166001600160a01b03168152602001838152602001828103825285818151815260200191508051906020019060200280838360005b8381101561256257818101518382015260200161254a565b505050509050019650505050505050600060405180830381600087803b15801561258b57600080fd5b505af115801561259f573d6000803e3d6000fd5b505050506040513d6000823e601f3d908101601f1916820160405260208110156125c857600080fd5b81019080805160405193929190846401000000008211156125e857600080fd5b9083019060208201858111156125fd57600080fd5b825186602082028301116401000000008211171561261a57600080fd5b82525081516020918201928201910280838360005b8381101561264757818101518382015260200161262f565b50505050905001604052505050505050565b60048054604080516370a0823160e01b81523093810193909352516000926001600160a01b03909216916370a08231916024808301926020929190829003018186803b1580156126a857600080fd5b505afa1580156126bc573d6000803e3d6000fd5b505050506040513d60208110156126d257600080fd5b50519050801561224e57600654604080516361d027b360e01b8152905161276a926001600160a01b0316916361d027b3916004808301926020929190829003018186803b15801561272257600080fd5b505afa158015612736573d6000803e3d6000fd5b505050506040513d602081101561274c57600080fd5b50516000546110939061271090610e9390869063ffffffff61239c16565b60065460408051638d8f1e6760e01b815290516127f8926001600160a01b031691638d8f1e67916004808301926020929190829003018186803b1580156127b057600080fd5b505afa1580156127c4573d6000803e3d6000fd5b505050506040513d60208110156127da57600080fd5b50516001546110939061271090610e9390869063ffffffff61239c16565b6004546009546001600160a01b039182169163095ea7b39116612828670de0b6b3a7640000610e93611b99611861565b6040518363ffffffff1660e01b815260040180836001600160a01b03166001600160a01b0316815260200182815260200192505050602060405180830381600087803b15801561287757600080fd5b505af115801561288b573d6000803e3d6000fd5b505050506040513d60208110156128a157600080fd5b50506009546001600160a01b031663eca34d2460016128cd670de0b6b3a7640000610e93611b99611861565b6040518363ffffffff1660e01b81526004018083815260200182815260200192505050600060405180830381600087803b15801561290a57600080fd5b505af115801561291e573d6000803e3d6000fd5b5050505061224e612137565b61224e610e5b610b15565b600080600073d4405f0704621dbe9d4dea60e128e0c3b26bddbd6001600160a01b0316630902f1ac6040518163ffffffff1660e01b815260040160606040518083038186803b15801561298757600080fd5b505afa15801561299b573d6000803e3d6000fd5b505050506040513d60608110156129b157600080fd5b50805160209091015190925090506129ef6dffffffffffffffffffffffffffff80841690610e93908416670de0b6b3a764000063ffffffff61239c16565b9250505090565b801580612a7c575060408051636eb1769f60e11b81523060048201526001600160a01b03848116602483015291519185169163dd62ed3e91604480820192602092909190829003018186803b158015612a4e57600080fd5b505afa158015612a62573d6000803e3d6000fd5b505050506040513d6020811015612a7857600080fd5b5051155b612ab75760405162461bcd60e51b8152600401808060200182810382526036815260200180612e8c6036913960400191505060405180910390fd5b604080516001600160a01b038416602482015260448082018490528251808303909101815260649091019091526020810180516001600160e01b031663095ea7b360e01b179052612489908490612c05565b60008184841115612b985760405162461bcd60e51b81526004018080602001828103825283818151815260200191508051906020019080838360005b83811015612b5d578181015183820152602001612b45565b50505050905090810190601f168015612b8a5780820380516001836020036101000a031916815260200191505b509250505060405180910390fd5b505050900390565b60008183612bef5760405162461bcd60e51b8152602060048201818152835160248401528351909283926044909101919085019080838360008315612b5d578181015183820152602001612b45565b506000838581612bfb57fe5b0495945050505050565b6060612c5a826040518060400160405280602081526020017f5361666545524332303a206c6f772d6c6576656c2063616c6c206661696c6564815250856001600160a01b0316612cb69092919063ffffffff16565b80519091501561248957808060200190516020811015612c7957600080fd5b50516124895760405162461bcd60e51b815260040180806020018281038252602a815260200180612e62602a913960400191505060405180910390fd5b6060612cc58484600085612ccd565b949350505050565b6060612cd885612e3a565b612d29576040805162461bcd60e51b815260206004820152601d60248201527f416464726573733a2063616c6c20746f206e6f6e2d636f6e7472616374000000604482015290519081900360640190fd5b60006060866001600160a01b031685876040518082805190602001908083835b60208310612d685780518252601f199092019160209182019101612d49565b6001836020036101000a03801982511681845116808217855250505050505090500191505060006040518083038185875af1925050503d8060008114612dca576040519150601f19603f3d011682016040523d82523d6000602084013e612dcf565b606091505b50915091508115612de3579150612cc59050565b805115612df35780518082602001fd5b60405162461bcd60e51b8152602060048201818152865160248401528651879391928392604401919085019080838360008315612b5d578181015183820152602001612b45565b3b15159056fe536166654d6174683a206d756c7469706c69636174696f6e206f766572666c6f775361666545524332303a204552433230206f7065726174696f6e20646964206e6f7420737563636565645361666545524332303a20617070726f76652066726f6d206e6f6e2d7a65726f20746f206e6f6e2d7a65726f20616c6c6f77616e6365a264697066735822122012ebdee02662376d4d0192114c419ad508165a20d62f9cdf59782d890c89489a64736f6c63430006070033",
  "devdoc": {
    "methods": {}
  },
  "userdoc": {
    "methods": {}
  },
  "storageLayout": {
    "storage": [
      {
        "astId": 3561,
        "contract": "src/strategies/basis/strategy-basis-bac.sol:StrategyBasisBac",
        "label": "performanceTreasuryFee",
        "offset": 0,
        "slot": "0",
        "type": "t_uint256"
      },
      {
        "astId": 3567,
        "contract": "src/strategies/basis/strategy-basis-bac.sol:StrategyBasisBac",
        "label": "performanceDevFee",
        "offset": 0,
        "slot": "1",
        "type": "t_uint256"
      },
      {
        "astId": 3573,
        "contract": "src/strategies/basis/strategy-basis-bac.sol:StrategyBasisBac",
        "label": "withdrawalTreasuryFee",
        "offset": 0,
        "slot": "2",
        "type": "t_uint256"
      },
      {
        "astId": 3579,
        "contract": "src/strategies/basis/strategy-basis-bac.sol:StrategyBasisBac",
        "label": "withdrawalDevFundFee",
        "offset": 0,
        "slot": "3",
        "type": "t_uint256"
      },
      {
        "astId": 3584,
        "contract": "src/strategies/basis/strategy-basis-bac.sol:StrategyBasisBac",
        "label": "want",
        "offset": 0,
        "slot": "4",
        "type": "t_address"
      },
      {
        "astId": 3592,
        "contract": "src/strategies/basis/strategy-basis-bac.sol:StrategyBasisBac",
        "label": "governance",
        "offset": 0,
        "slot": "5",
        "type": "t_address"
      },
      {
        "astId": 3594,
        "contract": "src/strategies/basis/strategy-basis-bac.sol:StrategyBasisBac",
        "label": "controller",
        "offset": 0,
        "slot": "6",
        "type": "t_address"
      },
      {
        "astId": 3596,
        "contract": "src/strategies/basis/strategy-basis-bac.sol:StrategyBasisBac",
        "label": "strategist",
        "offset": 0,
        "slot": "7",
        "type": "t_address"
      },
      {
        "astId": 3598,
        "contract": "src/strategies/basis/strategy-basis-bac.sol:StrategyBasisBac",
        "label": "timelock",
        "offset": 0,
        "slot": "8",
        "type": "t_address"
      },
      {
        "astId": 3600,
        "contract": "src/strategies/basis/strategy-basis-bac.sol:StrategyBasisBac",
        "label": "redeem",
        "offset": 0,
        "slot": "9",
        "type": "t_address"
      },
      {
        "astId": 3602,
        "contract": "src/strategies/basis/strategy-basis-bac.sol:StrategyBasisBac",
        "label": "bond",
        "offset": 0,
        "slot": "10",
        "type": "t_address"
      },
      {
        "astId": 3604,
        "contract": "src/strategies/basis/strategy-basis-bac.sol:StrategyBasisBac",
        "label": "burn",
        "offset": 0,
        "slot": "11",
        "type": "t_address"
      },
      {
        "astId": 3607,
        "contract": "src/strategies/basis/strategy-basis-bac.sol:StrategyBasisBac",
        "label": "univ2Router2",
        "offset": 0,
        "slot": "12",
        "type": "t_address"
      },
      {
        "astId": 3610,
        "contract": "src/strategies/basis/strategy-basis-bac.sol:StrategyBasisBac",
        "label": "sushiRouter",
        "offset": 0,
        "slot": "13",
        "type": "t_address"
      },
      {
        "astId": 3614,
        "contract": "src/strategies/basis/strategy-basis-bac.sol:StrategyBasisBac",
        "label": "harvesters",
        "offset": 0,
        "slot": "14",
        "type": "t_mapping(t_address,t_bool)"
      },
      {
        "astId": 4884,
        "contract": "src/strategies/basis/strategy-basis-bac.sol:StrategyBasisBac",
        "label": "rewards",
        "offset": 0,
        "slot": "15",
        "type": "t_address"
      },
      {
        "astId": 4692,
        "contract": "src/strategies/basis/strategy-basis-bac.sol:StrategyBasisBac",
        "label": "bas",
        "offset": 0,
        "slot": "16",
        "type": "t_address"
      },
      {
        "astId": 4695,
        "contract": "src/strategies/basis/strategy-basis-bac.sol:StrategyBasisBac",
        "label": "dai",
        "offset": 0,
        "slot": "17",
        "type": "t_address"
      },
      {
        "astId": 4697,
        "contract": "src/strategies/basis/strategy-basis-bac.sol:StrategyBasisBac",
        "label": "token1",
        "offset": 0,
        "slot": "18",
        "type": "t_address"
      },
      {
        "astId": 4700,
        "contract": "src/strategies/basis/strategy-basis-bac.sol:StrategyBasisBac",
        "label": "keepBAS",
        "offset": 0,
        "slot": "19",
        "type": "t_uint256"
      },
      {
        "astId": 3495,
        "contract": "src/strategies/basis/strategy-basis-bac.sol:StrategyBasisBac",
        "label": "staking_pool",
        "offset": 0,
        "slot": "20",
        "type": "t_address"
      },
      {
        "astId": 3498,
        "contract": "src/strategies/basis/strategy-basis-bac.sol:StrategyBasisBac",
        "label": "bac",
        "offset": 0,
        "slot": "21",
        "type": "t_address"
      }
    ],
    "types": {
      "t_address": {
        "encoding": "inplace",
        "label": "address",
        "numberOfBytes": "20"
      },
      "t_bool": {
        "encoding": "inplace",
        "label": "bool",
        "numberOfBytes": "1"
      },
      "t_mapping(t_address,t_bool)": {
        "encoding": "mapping",
        "key": "t_address",
        "label": "mapping(address => bool)",
        "numberOfBytes": "32",
        "value": "t_bool"
      },
      "t_uint256": {
        "encoding": "inplace",
        "label": "uint256",
        "numberOfBytes": "32"
      }
    }
  }
}