{
  "address": "0x80e22d271de6097c9a0296f03767e729bb8da007",
  "abi": [
    {
      "inputs": [
        {
          "internalType": "address",
          "name": "_governance",
          "type": "address"
        },
        {
          "internalType": "address",
          "name": "_strategist",
          "type": "address"
        },
        {
          "internalType": "address",
          "name": "_timelock",
          "type": "address"
        },
        {
          "internalType": "address",
          "name": "_devfund",
          "type": "address"
        },
        {
          "internalType": "address",
          "name": "_treasury",
          "type": "address"
        }
      ],
      "stateMutability": "nonpayable",
      "type": "constructor"
    },
    {
      "inputs": [
        {
          "internalType": "address",
          "name": "_token",
          "type": "address"
        },
        {
          "internalType": "address",
          "name": "_strategy",
          "type": "address"
        }
      ],
      "name": "approveStrategy",
      "outputs": [],
      "stateMutability": "nonpayable",
      "type": "function"
    },
    {
      "inputs": [
        {
          "internalType": "address",
          "name": "",
          "type": "address"
        },
        {
          "internalType": "address",
          "name": "",
          "type": "address"
        }
      ],
      "name": "approvedStrategies",
      "outputs": [
        {
          "internalType": "bool",
          "name": "",
          "type": "bool"
        }
      ],
      "stateMutability": "view",
      "type": "function"
    },
    {
      "inputs": [
        {
          "internalType": "address",
          "name": "_token",
          "type": "address"
        }
      ],
      "name": "balanceOf",
      "outputs": [
        {
          "internalType": "uint256",
          "name": "",
          "type": "uint256"
        }
      ],
      "stateMutability": "view",
      "type": "function"
    },
    {
      "inputs": [],
      "name": "burn",
      "outputs": [
        {
          "internalType": "address",
          "name": "",
          "type": "address"
        }
      ],
      "stateMutability": "view",
      "type": "function"
    },
    {
      "inputs": [],
      "name": "convenienceFee",
      "outputs": [
        {
          "internalType": "uint256",
          "name": "",
          "type": "uint256"
        }
      ],
      "stateMutability": "view",
      "type": "function"
    },
    {
      "inputs": [],
      "name": "convenienceFeeMax",
      "outputs": [
        {
          "internalType": "uint256",
          "name": "",
          "type": "uint256"
        }
      ],
      "stateMutability": "view",
      "type": "function"
    },
    {
      "inputs": [],
      "name": "devfund",
      "outputs": [
        {
          "internalType": "address",
          "name": "",
          "type": "address"
        }
      ],
      "stateMutability": "view",
      "type": "function"
    },
    {
      "inputs": [
        {
          "internalType": "address",
          "name": "_token",
          "type": "address"
        },
        {
          "internalType": "uint256",
          "name": "_amount",
          "type": "uint256"
        }
      ],
      "name": "earn",
      "outputs": [],
      "stateMutability": "nonpayable",
      "type": "function"
    },
    {
      "inputs": [
        {
          "internalType": "address",
          "name": "_strategy",
          "type": "address"
        },
        {
          "internalType": "address",
          "name": "_token",
          "type": "address"
        },
        {
          "internalType": "uint256",
          "name": "parts",
          "type": "uint256"
        }
      ],
      "name": "getExpectedReturn",
      "outputs": [
        {
          "internalType": "uint256",
          "name": "expected",
          "type": "uint256"
        }
      ],
      "stateMutability": "view",
      "type": "function"
    },
    {
      "inputs": [],
      "name": "governance",
      "outputs": [
        {
          "internalType": "address",
          "name": "",
          "type": "address"
        }
      ],
      "stateMutability": "view",
      "type": "function"
    },
    {
      "inputs": [
        {
          "internalType": "address",
          "name": "_strategy",
          "type": "address"
        },
        {
          "internalType": "address",
          "name": "_token",
          "type": "address"
        }
      ],
      "name": "inCaseStrategyTokenGetStuck",
      "outputs": [],
      "stateMutability": "nonpayable",
      "type": "function"
    },
    {
      "inputs": [
        {
          "internalType": "address",
          "name": "_token",
          "type": "address"
        },
        {
          "internalType": "uint256",
          "name": "_amount",
          "type": "uint256"
        }
      ],
      "name": "inCaseTokensGetStuck",
      "outputs": [],
      "stateMutability": "nonpayable",
      "type": "function"
    },
    {
      "inputs": [],
      "name": "max",
      "outputs": [
        {
          "internalType": "uint256",
          "name": "",
          "type": "uint256"
        }
      ],
      "stateMutability": "view",
      "type": "function"
    },
    {
      "inputs": [],
      "name": "onesplit",
      "outputs": [
        {
          "internalType": "address",
          "name": "",
          "type": "address"
        }
      ],
      "stateMutability": "view",
      "type": "function"
    },
    {
      "inputs": [
        {
          "internalType": "address",
          "name": "_token",
          "type": "address"
        },
        {
          "internalType": "address",
          "name": "_strategy",
          "type": "address"
        }
      ],
      "name": "revokeStrategy",
      "outputs": [],
      "stateMutability": "nonpayable",
      "type": "function"
    },
    {
      "inputs": [
        {
          "internalType": "uint256",
          "name": "_convenienceFee",
          "type": "uint256"
        }
      ],
      "name": "setConvenienceFee",
      "outputs": [],
      "stateMutability": "nonpayable",
      "type": "function"
    },
    {
      "inputs": [
        {
          "internalType": "address",
          "name": "_devfund",
          "type": "address"
        }
      ],
      "name": "setDevFund",
      "outputs": [],
      "stateMutability": "nonpayable",
      "type": "function"
    },
    {
      "inputs": [
        {
          "internalType": "address",
          "name": "_governance",
          "type": "address"
        }
      ],
      "name": "setGovernance",
      "outputs": [],
      "stateMutability": "nonpayable",
      "type": "function"
    },
    {
      "inputs": [
        {
          "internalType": "address",
          "name": "_onesplit",
          "type": "address"
        }
      ],
      "name": "setOneSplit",
      "outputs": [],
      "stateMutability": "nonpayable",
      "type": "function"
    },
    {
      "inputs": [
        {
          "internalType": "uint256",
          "name": "_split",
          "type": "uint256"
        }
      ],
      "name": "setSplit",
      "outputs": [],
      "stateMutability": "nonpayable",
      "type": "function"
    },
    {
      "inputs": [
        {
          "internalType": "address",
          "name": "_strategist",
          "type": "address"
        }
      ],
      "name": "setStrategist",
      "outputs": [],
      "stateMutability": "nonpayable",
      "type": "function"
    },
    {
      "inputs": [
        {
          "internalType": "address",
          "name": "_token",
          "type": "address"
        },
        {
          "internalType": "address",
          "name": "_strategy",
          "type": "address"
        }
      ],
      "name": "setStrategy",
      "outputs": [],
      "stateMutability": "nonpayable",
      "type": "function"
    },
    {
      "inputs": [
        {
          "internalType": "address",
          "name": "_timelock",
          "type": "address"
        }
      ],
      "name": "setTimelock",
      "outputs": [],
      "stateMutability": "nonpayable",
      "type": "function"
    },
    {
      "inputs": [
        {
          "internalType": "address",
          "name": "_treasury",
          "type": "address"
        }
      ],
      "name": "setTreasury",
      "outputs": [],
      "stateMutability": "nonpayable",
      "type": "function"
    },
    {
      "inputs": [
        {
          "internalType": "address",
          "name": "_token",
          "type": "address"
        },
        {
          "internalType": "address",
          "name": "_vault",
          "type": "address"
        }
      ],
      "name": "setVault",
      "outputs": [],
      "stateMutability": "nonpayable",
      "type": "function"
    },
    {
      "inputs": [],
      "name": "split",
      "outputs": [
        {
          "internalType": "uint256",
          "name": "",
          "type": "uint256"
        }
      ],
      "stateMutability": "view",
      "type": "function"
    },
    {
      "inputs": [
        {
          "internalType": "address",
          "name": "",
          "type": "address"
        }
      ],
      "name": "strategies",
      "outputs": [
        {
          "internalType": "address",
          "name": "",
          "type": "address"
        }
      ],
      "stateMutability": "view",
      "type": "function"
    },
    {
      "inputs": [],
      "name": "strategist",
      "outputs": [
        {
          "internalType": "address",
          "name": "",
          "type": "address"
        }
      ],
      "stateMutability": "view",
      "type": "function"
    },
    {
      "inputs": [],
      "name": "timelock",
      "outputs": [
        {
          "internalType": "address",
          "name": "",
          "type": "address"
        }
      ],
      "stateMutability": "view",
      "type": "function"
    },
    {
      "inputs": [],
      "name": "treasury",
      "outputs": [
        {
          "internalType": "address",
          "name": "",
          "type": "address"
        }
      ],
      "stateMutability": "view",
      "type": "function"
    },
    {
      "inputs": [
        {
          "internalType": "address",
          "name": "",
          "type": "address"
        }
      ],
      "name": "vaults",
      "outputs": [
        {
          "internalType": "address",
          "name": "",
          "type": "address"
        }
      ],
      "stateMutability": "view",
      "type": "function"
    },
    {
      "inputs": [
        {
          "internalType": "address",
          "name": "_token",
          "type": "address"
        },
        {
          "internalType": "uint256",
          "name": "_amount",
          "type": "uint256"
        }
      ],
      "name": "withdraw",
      "outputs": [],
      "stateMutability": "nonpayable",
      "type": "function"
    },
    {
      "inputs": [
        {
          "internalType": "address",
          "name": "_token",
          "type": "address"
        }
      ],
      "name": "withdrawAll",
      "outputs": [],
      "stateMutability": "nonpayable",
      "type": "function"
    },
    {
      "inputs": [
        {
          "internalType": "address",
          "name": "_strategy",
          "type": "address"
        },
        {
          "internalType": "address",
          "name": "_token",
          "type": "address"
        },
        {
          "internalType": "uint256",
          "name": "parts",
          "type": "uint256"
        }
      ],
      "name": "yearn",
      "outputs": [],
      "stateMutability": "nonpayable",
      "type": "function"
    }
  ],
  "transactionHash": "0xda15cb244233f20eac31bda2704f11f5f1bd24f76225ad82248f3701e3631a83",
  "args": [
    "0xa1bd0bbacd5f952a119ed12a18c87985773add62",
    "0xa1bd0bbacd5f952a119ed12a18c87985773add62",
    "0xa1bd0bbacd5f952a119ed12a18c87985773add62",
    "0xa1bd0bbacd5f952a119ed12a18c87985773add62",
    "0x68c3a95b35c45db5db67ed83c43305052fad6e04"
  ],
  "solcInputHash": "ae53ffe2e8d4c566e5b1aef60371efb5",
  "bytecode": "0x6080604052600080546001600160a01b03191673c586bef4a0992c495cf22e1aeee4e446cecdee0e17905560646006556101f4600a553480156200004257600080fd5b5060405162002083380380620020838339810160408190526200006591620000c8565b600180546001600160a01b03199081166001600160a01b0397881617909155600280548216958716959095179094556005805485169386169390931790925560038054841691851691909117905560048054909216921691909117905562000160565b600080600080600060a08688031215620000e0578081fd5b8551620000ed8162000147565b6020870151909550620001008162000147565b6040870151909450620001138162000147565b6060870151909350620001268162000147565b6080870151909250620001398162000147565b809150509295509295909350565b6001600160a01b03811681146200015d57600080fd5b50565b611f1380620001706000396000f3fe608060405234801561001057600080fd5b50600436106102065760003560e01c80639bcdff1f1161011a578063c6d758cb116100ad578063f3fef3a31161007c578063f3fef3a31461040c578063f712adbb1461041f578063f765417614610427578063fa09e6301461042f578063fbe8b5ce1461044257610206565b8063c6d758cb146103cb578063c7b9d530146103de578063d33219b4146103f1578063f0f44260146103f957610206565b8063ae4db919116100e9578063ae4db9191461037f578063b02bf4b914610392578063bdacb303146103a5578063c494448e146103b857610206565b80639bcdff1f14610331578063a1578b6a14610339578063a622ee7c14610359578063ab033ea91461036c57610206565b806361d027b31161019d57806370a082311161016c57806370a08231146102dd578063714ccf7b146102f057806372cb5d97146103035780638d8f1e67146103165780638da1df4d1461031e57610206565b806361d027b31461029a578063674e694f146102a25780636ac5db19146102b55780636dcd64e5146102ca57610206565b806339ebf823116101d957806339ebf8231461026457806344df8e7014610277578063590bbb601461027f5780635aa6e6751461029257610206565b806304209f481461020b578063197baa6d146102205780631dfd45af146102335780631fe4a68614610246575b600080fd5b61021e6102193660046118f9565b61044a565b005b61021e61022e3660046118c1565b61094b565b61021e610241366004611984565b6109ec565b61024e610a1b565b60405161025b9190611a74565b60405180910390f35b61024e610272366004611889565b610a2a565b61024e610a45565b61021e61028d3660046118c1565b610a4b565b61024e610ae3565b61024e610af2565b61021e6102b0366004611984565b610b01565b6102bd610b52565b60405161025b9190611e45565b6102bd6102d83660046118f9565b610b58565b6102bd6102eb366004611889565b610ce3565b61021e6102fe3660046118c1565b610d73565b61021e6103113660046118c1565b610e18565b61024e610f66565b61021e61032c366004611889565b610f75565b6102bd610fc1565b61034c6103473660046118c1565b610fc8565b60405161025b9190611b66565b61024e610367366004611889565b610fe8565b61021e61037a366004611889565b611003565b61021e61038d366004611889565b61104f565b61021e6103a0366004611939565b61109b565b61021e6103b3366004611889565b6111ca565b61021e6103c63660046118c1565b611216565b61021e6103d9366004611939565b611274565b61021e6103ec366004611889565b6112d1565b61024e61131d565b61021e610407366004611889565b61132c565b61021e61041a366004611939565b611378565b61024e6113f0565b6102bd6113ff565b61021e61043d366004611889565b611405565b6102bd6114cd565b6002546001600160a01b031633148061046d57506001546001600160a01b031633145b6104925760405162461bcd60e51b815260040161048990611c00565b60405180910390fd5b6040516370a0823160e01b81526000906001600160a01b038416906370a08231906104c1903090600401611a74565b60206040518083038186803b1580156104d957600080fd5b505afa1580156104ed573d6000803e3d6000fd5b505050506040513d601f19601f82011682018060405250810190610511919061199c565b6040516351cff8d960e01b81529091506001600160a01b038516906351cff8d990610540908690600401611a74565b600060405180830381600087803b15801561055a57600080fd5b505af115801561056e573d6000803e3d6000fd5b50506040516370a0823160e01b8152600092506001600160a01b03861691506370a08231906105a1903090600401611a74565b60206040518083038186803b1580156105b957600080fd5b505afa1580156105cd573d6000803e3d6000fd5b505050506040513d601f19601f820116820180604052508101906105f1919061199c565b90508181111561094457600061060d828463ffffffff6114d316565b90506000866001600160a01b0316631f1fcd516040518163ffffffff1660e01b815260040160206040518083038186803b15801561064a57600080fd5b505afa15801561065e573d6000803e3d6000fd5b505050506040513d601f19601f8201168201806040525081019061068291906118a5565b905060606000826001600160a01b03166370a08231306040518263ffffffff1660e01b81526004016106b49190611a74565b60206040518083038186803b1580156106cc57600080fd5b505afa1580156106e0573d6000803e3d6000fd5b505050506040513d601f19601f82011682018060405250810190610704919061199c565b60008054919750610729916001600160a01b038b81169291169063ffffffff61151c16565b600054610749906001600160a01b038a811691168663ffffffff61151c16565b6000805460405163085e2c5b60e01b81526001600160a01b039091169163085e2c5b91610781918c9188918a918e9190600401611b1c565b60006040518083038186803b15801561079957600080fd5b505afa1580156107ad573d6000803e3d6000fd5b505050506040513d6000823e601f3d908101601f191682016040526107d591908101906119b4565b60008054604051637153a8af60e11b81529295509293506001600160a01b039092169163e2a7515e91610814918c9188918a9188918a91600401611aa2565b600060405180830381600087803b15801561082e57600080fd5b505af1158015610842573d6000803e3d6000fd5b50506040516370a0823160e01b81526001600160a01b03861692506370a082319150610872903090600401611a74565b60206040518083038186803b15801561088a57600080fd5b505afa15801561089e573d6000803e3d6000fd5b505050506040513d601f19601f820116820180604052508101906108c2919061199c565b94508585111561093f576108dc858763ffffffff6114d316565b935060006109076127106108fb600a548861161b90919063ffffffff16565b9063ffffffff61165516565b905061091d846103a0878463ffffffff6114d316565b60045461093d906001600160a01b0386811691168363ffffffff61169716565b505b505050505b5050505050565b6002546001600160a01b031633148061096e57506001546001600160a01b031633145b61098a5760405162461bcd60e51b815260040161048990611c00565b6040516351cff8d960e01b81526001600160a01b038316906351cff8d9906109b6908490600401611a74565b600060405180830381600087803b1580156109d057600080fd5b505af11580156109e4573d6000803e3d6000fd5b505050505050565b6005546001600160a01b03163314610a165760405162461bcd60e51b815260040161048990611dcc565b600655565b6002546001600160a01b031681565b6008602052600090815260409020546001600160a01b031681565b61dead81565b6001546001600160a01b03163314610a755760405162461bcd60e51b815260040161048990611c00565b6001600160a01b0382811660009081526008602052604090205481169082161415610ab25760405162461bcd60e51b815260040161048990611ba4565b6001600160a01b0391821660009081526009602090815260408083209390941682529190915220805460ff19169055565b6001546001600160a01b031681565b6004546001600160a01b031681565b6001546001600160a01b03163314610b2b5760405162461bcd60e51b815260040161048990611c00565b612710811115610b4d5760405162461bcd60e51b815260040161048990611c44565b600a55565b61271081565b600080836001600160a01b03166370a08231866040518263ffffffff1660e01b8152600401610b879190611a74565b60206040518083038186803b158015610b9f57600080fd5b505afa158015610bb3573d6000803e3d6000fd5b505050506040513d601f19601f82011682018060405250810190610bd7919061199c565b90506000856001600160a01b0316631f1fcd516040518163ffffffff1660e01b815260040160206040518083038186803b158015610c1457600080fd5b505afa158015610c28573d6000803e3d6000fd5b505050506040513d601f19601f82011682018060405250810190610c4c91906118a5565b6000805460405163085e2c5b60e01b81529293506001600160a01b03169163085e2c5b91610c84918991869188918b91600401611b1c565b60006040518083038186803b158015610c9c57600080fd5b505afa158015610cb0573d6000803e3d6000fd5b505050506040513d6000823e601f3d908101601f19168201604052610cd891908101906119b4565b509695505050505050565b6001600160a01b03808216600090815260086020908152604080832054815163722713f760e01b815291519394169263722713f792600480840193919291829003018186803b158015610d3557600080fd5b505afa158015610d49573d6000803e3d6000fd5b505050506040513d601f19601f82011682018060405250810190610d6d919061199c565b92915050565b6002546001600160a01b0316331480610d9657506001546001600160a01b031633145b610db25760405162461bcd60e51b815260040161048990611bdb565b6001600160a01b038281166000908152600760205260409020541615610dea5760405162461bcd60e51b815260040161048990611c25565b6001600160a01b03918216600090815260076020526040902080546001600160a01b03191691909216179055565b6002546001600160a01b0316331480610e3b57506001546001600160a01b031633145b610e575760405162461bcd60e51b815260040161048990611bdb565b6001600160a01b0380831660009081526009602090815260408083209385168352929052205460ff161515600114610ea15760405162461bcd60e51b815260040161048990611cc7565b6001600160a01b03808316600090815260086020526040902054168015610f3757806001600160a01b031663853828b66040518163ffffffff1660e01b8152600401602060405180830381600087803b158015610efd57600080fd5b505af1158015610f11573d6000803e3d6000fd5b505050506040513d601f19601f82011682018060405250810190610f35919061199c565b505b506001600160a01b03918216600090815260086020526040902080546001600160a01b03191691909216179055565b6003546001600160a01b031681565b6001546001600160a01b03163314610f9f5760405162461bcd60e51b815260040161048990611c00565b600080546001600160a01b0319166001600160a01b0392909216919091179055565b620186a081565b600960209081526000928352604080842090915290825290205460ff1681565b6007602052600090815260409020546001600160a01b031681565b6001546001600160a01b0316331461102d5760405162461bcd60e51b815260040161048990611c00565b600180546001600160a01b0319166001600160a01b0392909216919091179055565b6001546001600160a01b031633146110795760405162461bcd60e51b815260040161048990611c00565b600380546001600160a01b0319166001600160a01b0392909216919091179055565b6001600160a01b038083166000908152600860209081526040808320548151631f1fcd5160e01b815291519416938492631f1fcd519260048082019391829003018186803b1580156110ec57600080fd5b505afa158015611100573d6000803e3d6000fd5b505050506040513d601f19601f8201168201806040525081019061112491906118a5565b9050836001600160a01b0316816001600160a01b0316146111575760405162461bcd60e51b815260040161048990611c90565b6111716001600160a01b038516838563ffffffff61169716565b816001600160a01b031663d0e30db06040518163ffffffff1660e01b8152600401600060405180830381600087803b1580156111ac57600080fd5b505af11580156111c0573d6000803e3d6000fd5b5050505050505050565b6005546001600160a01b031633146111f45760405162461bcd60e51b815260040161048990611dcc565b600580546001600160a01b0319166001600160a01b0392909216919091179055565b6005546001600160a01b031633146112405760405162461bcd60e51b815260040161048990611dcc565b6001600160a01b0391821660009081526009602090815260408083209390941682529190915220805460ff19166001179055565b6002546001600160a01b031633148061129757506001546001600160a01b031633145b6112b35760405162461bcd60e51b815260040161048990611c00565b6112cd6001600160a01b038316338363ffffffff61169716565b5050565b6001546001600160a01b031633146112fb5760405162461bcd60e51b815260040161048990611c00565b600280546001600160a01b0319166001600160a01b0392909216919091179055565b6005546001600160a01b031681565b6001546001600160a01b031633146113565760405162461bcd60e51b815260040161048990611c00565b600480546001600160a01b0319166001600160a01b0392909216919091179055565b6001600160a01b038281166000908152600760205260409020541633146113b15760405162461bcd60e51b815260040161048990611d2b565b6001600160a01b0380831660009081526008602052604090819020549051632e1a7d4d60e01b8152911690632e1a7d4d906109b6908490600401611e45565b6000546001600160a01b031681565b600a5481565b6002546001600160a01b031633148061142857506001546001600160a01b031633145b6114445760405162461bcd60e51b815260040161048990611bdb565b6001600160a01b03808216600090815260086020908152604080832054815163429c145b60e11b8152915194169363853828b693600480840194938390030190829087803b15801561149557600080fd5b505af11580156114a9573d6000803e3d6000fd5b505050506040513d601f19601f820116820180604052508101906112cd919061199c565b60065481565b600061151583836040518060400160405280601e81526020017f536166654d6174683a207375627472616374696f6e206f766572666c6f7700008152506116b6565b9392505050565b8015806115a45750604051636eb1769f60e11b81526001600160a01b0384169063dd62ed3e906115529030908690600401611a88565b60206040518083038186803b15801561156a57600080fd5b505afa15801561157e573d6000803e3d6000fd5b505050506040513d601f19601f820116820180604052508101906115a2919061199c565b155b6115c05760405162461bcd60e51b815260040161048990611def565b6116168363095ea7b360e01b84846040516024016115df929190611b4d565b60408051601f198184030181529190526020810180516001600160e01b03166001600160e01b0319909316929092179091526116e2565b505050565b60008261162a57506000610d6d565b8282028284828161163757fe5b04146115155760405162461bcd60e51b815260040161048990611cea565b600061151583836040518060400160405280601a81526020017f536166654d6174683a206469766973696f6e206279207a65726f000000000000815250611771565b6116168363a9059cbb60e01b84846040516024016115df929190611b4d565b600081848411156116da5760405162461bcd60e51b81526004016104899190611b71565b505050900390565b6060611737826040518060400160405280602081526020017f5361666545524332303a206c6f772d6c6576656c2063616c6c206661696c6564815250856001600160a01b03166117a89092919063ffffffff16565b80519091501561161657808060200190518101906117559190611964565b6116165760405162461bcd60e51b815260040161048990611d82565b600081836117925760405162461bcd60e51b81526004016104899190611b71565b50600083858161179e57fe5b0495945050505050565b60606117b784846000856117bf565b949350505050565b60606117ca85611883565b6117e65760405162461bcd60e51b815260040161048990611d4b565b60006060866001600160a01b031685876040516118039190611a58565b60006040518083038185875af1925050503d8060008114611840576040519150601f19603f3d011682016040523d82523d6000602084013e611845565b606091505b509150915081156118595791506117b79050565b8051156118695780518082602001fd5b8360405162461bcd60e51b81526004016104899190611b71565b3b151590565b60006020828403121561189a578081fd5b813561151581611ec5565b6000602082840312156118b6578081fd5b815161151581611ec5565b600080604083850312156118d3578081fd5b82356118de81611ec5565b915060208301356118ee81611ec5565b809150509250929050565b60008060006060848603121561190d578081fd5b833561191881611ec5565b9250602084013561192881611ec5565b929592945050506040919091013590565b6000806040838503121561194b578182fd5b823561195681611ec5565b946020939093013593505050565b600060208284031215611975578081fd5b81518015158114611515578182fd5b600060208284031215611995578081fd5b5035919050565b6000602082840312156119ad578081fd5b5051919050565b600080604083850312156119c6578182fd5b8251915060208084015167ffffffffffffffff8111156119e4578283fd5b80850186601f8201126119f5578384fd5b80519150611a0a611a0583611e75565b611e4e565b82815283810190828501858502840186018a1015611a26578687fd5b8693505b84841015611a48578051835260019390930192918501918501611a2a565b5080955050505050509250929050565b60008251611a6a818460208701611e95565b9190910192915050565b6001600160a01b0391909116815260200190565b6001600160a01b0392831681529116602082015260400190565b6001600160a01b0387811682528616602080830191909152604082018690526060820185905260c06080830181905284519083018190526000918581019160e085019190845b81811015611b0457845184529382019392820192600101611ae8565b50505060a09390930193909352509695505050505050565b6001600160a01b03958616815293909416602084015260408301919091526060820152608081019190915260a00190565b6001600160a01b03929092168252602082015260400190565b901515815260200190565b6000602082528251806020840152611b90816040850160208701611e95565b601f01601f19169190910160400192915050565b6020808252601d908201527f63616e6e6f74207265766f6b6520616374697665207374726174656779000000604082015260600190565b6020808252600b908201526a085cdd1c985d1959da5cdd60aa1b604082015260600190565b6020808252600b908201526a21676f7665726e616e636560a81b604082015260600190565b6020808252600590820152641d985d5b1d60da1b604082015260600190565b6020808252602c908201527f6e756d657261746f722063616e6e6f742062652067726561746572207468616e60408201526b103232b737b6b4b730ba37b960a11b606082015260800190565b60208082526019908201527f556e6465726c79696e6720746f6b656e206d69736d6174636800000000000000604082015260600190565b60208082526009908201526808585c1c1c9bdd995960ba1b604082015260600190565b60208082526021908201527f536166654d6174683a206d756c7469706c69636174696f6e206f766572666c6f6040820152607760f81b606082015260800190565b602080825260069082015265085d985d5b1d60d21b604082015260600190565b6020808252601d908201527f416464726573733a2063616c6c20746f206e6f6e2d636f6e7472616374000000604082015260600190565b6020808252602a908201527f5361666545524332303a204552433230206f7065726174696f6e20646964206e6040820152691bdd081cdd58d8d9595960b21b606082015260800190565b6020808252600990820152682174696d656c6f636b60b81b604082015260600190565b60208082526036908201527f5361666545524332303a20617070726f76652066726f6d206e6f6e2d7a65726f60408201527520746f206e6f6e2d7a65726f20616c6c6f77616e636560501b606082015260800190565b90815260200190565b60405181810167ffffffffffffffff81118282101715611e6d57600080fd5b604052919050565b600067ffffffffffffffff821115611e8b578081fd5b5060209081020190565b60005b83811015611eb0578181015183820152602001611e98565b83811115611ebf576000848401525b50505050565b6001600160a01b0381168114611eda57600080fd5b5056fea264697066735822122073148488ec79211eb313940f719f0745d81bf173be02285b763cb9724546030264736f6c63430006070033",
  "devdoc": {
    "methods": {}
  },
  "userdoc": {
    "methods": {}
  },
  "storageLayout": {
    "storage": [
      {
        "astId": 518,
        "contract": "src/controller-v4.sol:ControllerV4",
        "label": "onesplit",
        "offset": 0,
        "slot": "0",
        "type": "t_address"
      },
      {
        "astId": 520,
        "contract": "src/controller-v4.sol:ControllerV4",
        "label": "governance",
        "offset": 0,
        "slot": "1",
        "type": "t_address"
      },
      {
        "astId": 522,
        "contract": "src/controller-v4.sol:ControllerV4",
        "label": "strategist",
        "offset": 0,
        "slot": "2",
        "type": "t_address"
      },
      {
        "astId": 524,
        "contract": "src/controller-v4.sol:ControllerV4",
        "label": "devfund",
        "offset": 0,
        "slot": "3",
        "type": "t_address"
      },
      {
        "astId": 526,
        "contract": "src/controller-v4.sol:ControllerV4",
        "label": "treasury",
        "offset": 0,
        "slot": "4",
        "type": "t_address"
      },
      {
        "astId": 528,
        "contract": "src/controller-v4.sol:ControllerV4",
        "label": "timelock",
        "offset": 0,
        "slot": "5",
        "type": "t_address"
      },
      {
        "astId": 531,
        "contract": "src/controller-v4.sol:ControllerV4",
        "label": "convenienceFee",
        "offset": 0,
        "slot": "6",
        "type": "t_uint256"
      },
      {
        "astId": 538,
        "contract": "src/controller-v4.sol:ControllerV4",
        "label": "vaults",
        "offset": 0,
        "slot": "7",
        "type": "t_mapping(t_address,t_address)"
      },
      {
        "astId": 542,
        "contract": "src/controller-v4.sol:ControllerV4",
        "label": "strategies",
        "offset": 0,
        "slot": "8",
        "type": "t_mapping(t_address,t_address)"
      },
      {
        "astId": 548,
        "contract": "src/controller-v4.sol:ControllerV4",
        "label": "approvedStrategies",
        "offset": 0,
        "slot": "9",
        "type": "t_mapping(t_address,t_mapping(t_address,t_bool))"
      },
      {
        "astId": 551,
        "contract": "src/controller-v4.sol:ControllerV4",
        "label": "split",
        "offset": 0,
        "slot": "10",
        "type": "t_uint256"
      }
    ],
    "types": {
      "t_address": {
        "encoding": "inplace",
        "label": "address",
        "numberOfBytes": "20"
      },
      "t_bool": {
        "encoding": "inplace",
        "label": "bool",
        "numberOfBytes": "1"
      },
      "t_mapping(t_address,t_address)": {
        "encoding": "mapping",
        "key": "t_address",
        "label": "mapping(address => address)",
        "numberOfBytes": "32",
        "value": "t_address"
      },
      "t_mapping(t_address,t_bool)": {
        "encoding": "mapping",
        "key": "t_address",
        "label": "mapping(address => bool)",
        "numberOfBytes": "32",
        "value": "t_bool"
      },
      "t_mapping(t_address,t_mapping(t_address,t_bool))": {
        "encoding": "mapping",
        "key": "t_address",
        "label": "mapping(address => mapping(address => bool))",
        "numberOfBytes": "32",
        "value": "t_mapping(t_address,t_bool)"
      },
      "t_uint256": {
        "encoding": "inplace",
        "label": "uint256",
        "numberOfBytes": "32"
      }
    }
  }
}